{
  "contractName": "GovernorAlpha",
  "abi": [
    {
      "inputs": [
        {
          "internalType": "address",
          "name": "timelock_",
          "type": "address"
        },
        {
          "internalType": "address",
          "name": "tkn_",
          "type": "address"
        },
        {
          "internalType": "address",
          "name": "guardian_",
          "type": "address"
        }
      ],
      "stateMutability": "nonpayable",
      "type": "constructor"
    },
    {
      "anonymous": false,
      "inputs": [
        {
          "indexed": false,
          "internalType": "uint256",
          "name": "id",
          "type": "uint256"
        }
      ],
      "name": "ProposalCanceled",
      "type": "event"
    },
    {
      "anonymous": false,
      "inputs": [
        {
          "indexed": false,
          "internalType": "uint256",
          "name": "id",
          "type": "uint256"
        },
        {
          "indexed": false,
          "internalType": "address",
          "name": "proposer",
          "type": "address"
        },
        {
          "indexed": false,
          "internalType": "address[]",
          "name": "targets",
          "type": "address[]"
        },
        {
          "indexed": false,
          "internalType": "uint256[]",
          "name": "values",
          "type": "uint256[]"
        },
        {
          "indexed": false,
          "internalType": "string[]",
          "name": "signatures",
          "type": "string[]"
        },
        {
          "indexed": false,
          "internalType": "bytes[]",
          "name": "calldatas",
          "type": "bytes[]"
        },
        {
          "indexed": false,
          "internalType": "uint256",
          "name": "startBlock",
          "type": "uint256"
        },
        {
          "indexed": false,
          "internalType": "uint256",
          "name": "endBlock",
          "type": "uint256"
        },
        {
          "indexed": false,
          "internalType": "string",
          "name": "description",
          "type": "string"
        }
      ],
      "name": "ProposalCreated",
      "type": "event"
    },
    {
      "anonymous": false,
      "inputs": [
        {
          "indexed": false,
          "internalType": "uint256",
          "name": "id",
          "type": "uint256"
        }
      ],
      "name": "ProposalExecuted",
      "type": "event"
    },
    {
      "anonymous": false,
      "inputs": [
        {
          "indexed": false,
          "internalType": "uint256",
          "name": "id",
          "type": "uint256"
        },
        {
          "indexed": false,
          "internalType": "uint256",
          "name": "eta",
          "type": "uint256"
        }
      ],
      "name": "ProposalQueued",
      "type": "event"
    },
    {
      "anonymous": false,
      "inputs": [
        {
          "indexed": false,
          "internalType": "address",
          "name": "voter",
          "type": "address"
        },
        {
          "indexed": false,
          "internalType": "uint256",
          "name": "proposalId",
          "type": "uint256"
        },
        {
          "indexed": false,
          "internalType": "bool",
          "name": "support",
          "type": "bool"
        },
        {
          "indexed": false,
          "internalType": "uint256",
          "name": "votes",
          "type": "uint256"
        }
      ],
      "name": "VoteCast",
      "type": "event"
    },
    {
      "inputs": [],
      "name": "BALLOT_TYPEHASH",
      "outputs": [
        {
          "internalType": "bytes32",
          "name": "",
          "type": "bytes32"
        }
      ],
      "stateMutability": "view",
      "type": "function",
      "constant": true
    },
    {
      "inputs": [],
      "name": "DOMAIN_TYPEHASH",
      "outputs": [
        {
          "internalType": "bytes32",
          "name": "",
          "type": "bytes32"
        }
      ],
      "stateMutability": "view",
      "type": "function",
      "constant": true
    },
    {
      "inputs": [],
      "name": "guardian",
      "outputs": [
        {
          "internalType": "address",
          "name": "",
          "type": "address"
        }
      ],
      "stateMutability": "view",
      "type": "function",
      "constant": true
    },
    {
      "inputs": [
        {
          "internalType": "address",
          "name": "",
          "type": "address"
        }
      ],
      "name": "latestProposalIds",
      "outputs": [
        {
          "internalType": "uint256",
          "name": "",
          "type": "uint256"
        }
      ],
      "stateMutability": "view",
      "type": "function",
      "constant": true
    },
    {
      "inputs": [],
      "name": "name",
      "outputs": [
        {
          "internalType": "string",
          "name": "",
          "type": "string"
        }
      ],
      "stateMutability": "view",
      "type": "function",
      "constant": true
    },
    {
      "inputs": [],
      "name": "proposalCount",
      "outputs": [
        {
          "internalType": "uint256",
          "name": "",
          "type": "uint256"
        }
      ],
      "stateMutability": "view",
      "type": "function",
      "constant": true
    },
    {
      "inputs": [
        {
          "internalType": "uint256",
          "name": "",
          "type": "uint256"
        }
      ],
      "name": "proposals",
      "outputs": [
        {
          "internalType": "uint256",
          "name": "id",
          "type": "uint256"
        },
        {
          "internalType": "address",
          "name": "proposer",
          "type": "address"
        },
        {
          "internalType": "uint256",
          "name": "eta",
          "type": "uint256"
        },
        {
          "internalType": "uint256",
          "name": "startBlock",
          "type": "uint256"
        },
        {
          "internalType": "uint256",
          "name": "endBlock",
          "type": "uint256"
        },
        {
          "internalType": "uint256",
          "name": "forVotes",
          "type": "uint256"
        },
        {
          "internalType": "uint256",
          "name": "againstVotes",
          "type": "uint256"
        },
        {
          "internalType": "bool",
          "name": "canceled",
          "type": "bool"
        },
        {
          "internalType": "bool",
          "name": "executed",
          "type": "bool"
        }
      ],
      "stateMutability": "view",
      "type": "function",
      "constant": true
    },
    {
      "inputs": [],
      "name": "timelock",
      "outputs": [
        {
          "internalType": "contract TimelockInterface",
          "name": "",
          "type": "address"
        }
      ],
      "stateMutability": "view",
      "type": "function",
      "constant": true
    },
    {
      "inputs": [],
      "name": "tkn",
      "outputs": [
        {
          "internalType": "contract TokenInterface",
          "name": "",
          "type": "address"
        }
      ],
      "stateMutability": "view",
      "type": "function",
      "constant": true
    },
    {
      "inputs": [],
      "name": "quorumVotes",
      "outputs": [
        {
          "internalType": "uint256",
          "name": "",
          "type": "uint256"
        }
      ],
      "stateMutability": "pure",
      "type": "function",
      "constant": true
    },
    {
      "inputs": [],
      "name": "proposalThreshold",
      "outputs": [
        {
          "internalType": "uint256",
          "name": "",
          "type": "uint256"
        }
      ],
      "stateMutability": "pure",
      "type": "function",
      "constant": true
    },
    {
      "inputs": [],
      "name": "proposalMaxOperations",
      "outputs": [
        {
          "internalType": "uint256",
          "name": "",
          "type": "uint256"
        }
      ],
      "stateMutability": "pure",
      "type": "function",
      "constant": true
    },
    {
      "inputs": [],
      "name": "votingDelay",
      "outputs": [
        {
          "internalType": "uint256",
          "name": "",
          "type": "uint256"
        }
      ],
      "stateMutability": "pure",
      "type": "function",
      "constant": true
    },
    {
      "inputs": [],
      "name": "votingPeriod",
      "outputs": [
        {
          "internalType": "uint256",
          "name": "",
          "type": "uint256"
        }
      ],
      "stateMutability": "pure",
      "type": "function",
      "constant": true
    },
    {
      "inputs": [
        {
          "internalType": "address[]",
          "name": "targets",
          "type": "address[]"
        },
        {
          "internalType": "uint256[]",
          "name": "values",
          "type": "uint256[]"
        },
        {
          "internalType": "string[]",
          "name": "signatures",
          "type": "string[]"
        },
        {
          "internalType": "bytes[]",
          "name": "calldatas",
          "type": "bytes[]"
        },
        {
          "internalType": "string",
          "name": "description",
          "type": "string"
        }
      ],
      "name": "propose",
      "outputs": [
        {
          "internalType": "uint256",
          "name": "",
          "type": "uint256"
        }
      ],
      "stateMutability": "nonpayable",
      "type": "function"
    },
    {
      "inputs": [
        {
          "internalType": "uint256",
          "name": "proposalId",
          "type": "uint256"
        }
      ],
      "name": "queue",
      "outputs": [],
      "stateMutability": "nonpayable",
      "type": "function"
    },
    {
      "inputs": [
        {
          "internalType": "uint256",
          "name": "proposalId",
          "type": "uint256"
        }
      ],
      "name": "execute",
      "outputs": [],
      "stateMutability": "payable",
      "type": "function",
      "payable": true
    },
    {
      "inputs": [
        {
          "internalType": "uint256",
          "name": "proposalId",
          "type": "uint256"
        }
      ],
      "name": "cancel",
      "outputs": [],
      "stateMutability": "nonpayable",
      "type": "function"
    },
    {
      "inputs": [
        {
          "internalType": "uint256",
          "name": "proposalId",
          "type": "uint256"
        }
      ],
      "name": "getActions",
      "outputs": [
        {
          "internalType": "address[]",
          "name": "targets",
          "type": "address[]"
        },
        {
          "internalType": "uint256[]",
          "name": "values",
          "type": "uint256[]"
        },
        {
          "internalType": "string[]",
          "name": "signatures",
          "type": "string[]"
        },
        {
          "internalType": "bytes[]",
          "name": "calldatas",
          "type": "bytes[]"
        }
      ],
      "stateMutability": "view",
      "type": "function",
      "constant": true
    },
    {
      "inputs": [
        {
          "internalType": "uint256",
          "name": "proposalId",
          "type": "uint256"
        },
        {
          "internalType": "address",
          "name": "voter",
          "type": "address"
        }
      ],
      "name": "getReceipt",
      "outputs": [
        {
          "components": [
            {
              "internalType": "bool",
              "name": "hasVoted",
              "type": "bool"
            },
            {
              "internalType": "bool",
              "name": "support",
              "type": "bool"
            },
            {
              "internalType": "uint96",
              "name": "votes",
              "type": "uint96"
            }
          ],
          "internalType": "struct GovernorAlpha.Receipt",
          "name": "",
          "type": "tuple"
        }
      ],
      "stateMutability": "view",
      "type": "function",
      "constant": true
    },
    {
      "inputs": [
        {
          "internalType": "uint256",
          "name": "proposalId",
          "type": "uint256"
        }
      ],
      "name": "state",
      "outputs": [
        {
          "internalType": "enum GovernorAlpha.ProposalState",
          "name": "",
          "type": "uint8"
        }
      ],
      "stateMutability": "view",
      "type": "function",
      "constant": true
    },
    {
      "inputs": [
        {
          "internalType": "uint256",
          "name": "proposalId",
          "type": "uint256"
        },
        {
          "internalType": "bool",
          "name": "support",
          "type": "bool"
        }
      ],
      "name": "castVote",
      "outputs": [],
      "stateMutability": "nonpayable",
      "type": "function"
    },
    {
      "inputs": [
        {
          "internalType": "uint256",
          "name": "proposalId",
          "type": "uint256"
        },
        {
          "internalType": "bool",
          "name": "support",
          "type": "bool"
        },
        {
          "internalType": "uint8",
          "name": "v",
          "type": "uint8"
        },
        {
          "internalType": "bytes32",
          "name": "r",
          "type": "bytes32"
        },
        {
          "internalType": "bytes32",
          "name": "s",
          "type": "bytes32"
        }
      ],
      "name": "castVoteBySig",
      "outputs": [],
      "stateMutability": "nonpayable",
      "type": "function"
    },
    {
      "inputs": [],
      "name": "__acceptAdmin",
      "outputs": [],
      "stateMutability": "nonpayable",
      "type": "function"
    },
    {
      "inputs": [],
      "name": "__abdicate",
      "outputs": [],
      "stateMutability": "nonpayable",
      "type": "function"
    },
    {
      "inputs": [
        {
          "internalType": "address",
          "name": "newPendingAdmin",
          "type": "address"
        },
        {
          "internalType": "uint256",
          "name": "eta",
          "type": "uint256"
        }
      ],
      "name": "__queueSetTimelockPendingAdmin",
      "outputs": [],
      "stateMutability": "nonpayable",
      "type": "function"
    },
    {
      "inputs": [
        {
          "internalType": "address",
          "name": "newPendingAdmin",
          "type": "address"
        },
        {
          "internalType": "uint256",
          "name": "eta",
          "type": "uint256"
        }
      ],
      "name": "__executeSetTimelockPendingAdmin",
      "outputs": [],
      "stateMutability": "nonpayable",
      "type": "function"
    }
  ],
  "bytecode": "0x60806040523480156200001157600080fd5b506040516200545f3803806200545f833981810160405262000037919081019062000119565b826000806101000a81548173ffffffffffffffffffffffffffffffffffffffff021916908373ffffffffffffffffffffffffffffffffffffffff16021790555081600160006101000a81548173ffffffffffffffffffffffffffffffffffffffff021916908373ffffffffffffffffffffffffffffffffffffffff16021790555080600260006101000a81548173ffffffffffffffffffffffffffffffffffffffff021916908373ffffffffffffffffffffffffffffffffffffffff160217905550505050620001bd565b6000815190506200011381620001a3565b92915050565b6000806000606084860312156200012f57600080fd5b60006200013f8682870162000102565b9350506020620001528682870162000102565b9250506040620001658682870162000102565b9150509250925092565b60006200017c8262000183565b9050919050565b600073ffffffffffffffffffffffffffffffffffffffff82169050919050565b620001ae816200016f565b8114620001ba57600080fd5b50565b61529280620001cd6000396000f3fe60806040526004361061019c5760003560e01c8063452a9320116100ec578063d33219b41161008a578063ddf0b00911610064578063ddf0b009146105b1578063deaaa7cc146105da578063e23a9a5214610605578063fe0d94c1146106425761019c565b8063d33219b41461051e578063da35c66414610549578063da95691a146105745761019c565b80637bdbe4d0116100c65780637bdbe4d01461048857806391500671146104b3578063b58131b0146104dc578063b9a61961146105075761019c565b8063452a93201461041d5780634634c61f14610448578063760fbc13146104715761019c565b806320606b7011610159578063328dd98211610133578063328dd9821461034c5780633932abb11461038c5780633e4f49e6146103b757806340e58ee5146103f45761019c565b806320606b70146102cd57806321f43e42146102f857806324bc1a64146103215761019c565b8063013cf08b146101a157806302a251a3146101e657806305f3a8521461021157806306fdde031461023c57806315373e3d1461026757806317977c6114610290575b600080fd5b3480156101ad57600080fd5b506101c860048036036101c39190810190613373565b61065e565b6040516101dd99989796959493929190614c6e565b60405180910390f35b3480156101f257600080fd5b506101fb6106e6565b6040516102089190614ba3565b60405180910390f35b34801561021d57600080fd5b506102266106f0565b6040516102339190614890565b60405180910390f35b34801561024857600080fd5b50610251610716565b60405161025e91906148c6565b60405180910390f35b34801561027357600080fd5b5061028e60048036036102899190810190613401565b61074f565b005b34801561029c57600080fd5b506102b760048036036102b2919081019061318c565b61075e565b6040516102c49190614ba3565b60405180910390f35b3480156102d957600080fd5b506102e2610776565b6040516102ef9190614799565b60405180910390f35b34801561030457600080fd5b5061031f600480360361031a91908101906131b5565b61078d565b005b34801561032d57600080fd5b5061033661091a565b6040516103439190614ba3565b60405180910390f35b34801561035857600080fd5b50610373600480360361036e9190810190613373565b61092d565b6040516103839493929190614738565b60405180910390f35b34801561039857600080fd5b506103a1610c0a565b6040516103ae9190614ba3565b60405180910390f35b3480156103c357600080fd5b506103de60048036036103d99190810190613373565b610c13565b6040516103eb91906148ab565b60405180910390f35b34801561040057600080fd5b5061041b60048036036104169190810190613373565b610df7565b005b34801561042957600080fd5b50610432611193565b60405161043f9190614565565b60405180910390f35b34801561045457600080fd5b5061046f600480360361046a919081019061343d565b6111b9565b005b34801561047d57600080fd5b50610486611388565b005b34801561049457600080fd5b5061049d61145c565b6040516104aa9190614ba3565b60405180910390f35b3480156104bf57600080fd5b506104da60048036036104d591908101906131b5565b611465565b005b3480156104e857600080fd5b506104f16115ed565b6040516104fe9190614ba3565b60405180910390f35b34801561051357600080fd5b5061051c611600565b005b34801561052a57600080fd5b50610533611713565b6040516105409190614875565b60405180910390f35b34801561055557600080fd5b5061055e611738565b60405161056b9190614ba3565b60405180910390f35b34801561058057600080fd5b5061059b600480360361059691908101906131f1565b61173e565b6040516105a89190614ba3565b60405180910390f35b3480156105bd57600080fd5b506105d860048036036105d39190810190613373565b611d0b565b005b3480156105e657600080fd5b506105ef61205a565b6040516105fc9190614799565b60405180910390f35b34801561061157600080fd5b5061062c600480360361062791908101906133c5565b612071565b6040516106399190614b88565b60405180910390f35b61065c60048036036106579190810190613373565b612153565b005b60046020528060005260406000206000915090508060000154908060010160009054906101000a900473ffffffffffffffffffffffffffffffffffffffff169080600201549080600701549080600801549080600901549080600a01549080600b0160009054906101000a900460ff169080600b0160019054906101000a900460ff16905089565b6000619d80905090565b600160009054906101000a900473ffffffffffffffffffffffffffffffffffffffff1681565b6040518060400160405280601681526020017f3c546f6b656e3e20476f7665726e6f7220416c7068610000000000000000000081525081565b61075a3383836123a0565b5050565b60056020528060005260406000206000915090505481565b6040516107829061453b565b604051809103902081565b600260009054906101000a900473ffffffffffffffffffffffffffffffffffffffff1673ffffffffffffffffffffffffffffffffffffffff163373ffffffffffffffffffffffffffffffffffffffff161461081d576040517f08c379a000000000000000000000000000000000000000000000000000000000815260040161081490614948565b60405180910390fd5b6000809054906101000a900473ffffffffffffffffffffffffffffffffffffffff1673ffffffffffffffffffffffffffffffffffffffff16630825f38f6000809054906101000a900473ffffffffffffffffffffffffffffffffffffffff1660008560405160200161088f9190614565565b604051602081830303815290604052856040518563ffffffff1660e01b81526004016108be94939291906145a9565b600060405180830381600087803b1580156108d857600080fd5b505af11580156108ec573d6000803e3d6000fd5b505050506040513d6000823e3d601f19601f820116820180604052506109159190810190613332565b505050565b60006a2116545850052128000000905090565b606080606080600060046000878152602001908152602001600020905080600301816004018260050183600601838054806020026020016040519081016040528092919081815260200182805480156109db57602002820191906000526020600020905b8160009054906101000a900473ffffffffffffffffffffffffffffffffffffffff1673ffffffffffffffffffffffffffffffffffffffff1681526020019060010190808311610991575b5050505050935082805480602002602001604051908101604052809291908181526020018280548015610a2d57602002820191906000526020600020905b815481526020019060010190808311610a19575b5050505050925081805480602002602001604051908101604052809291908181526020016000905b82821015610b11578382906000526020600020018054600181600116156101000203166002900480601f016020809104026020016040519081016040528092919081815260200182805460018160011615610100020316600290048015610afd5780601f10610ad257610100808354040283529160200191610afd565b820191906000526020600020905b815481529060010190602001808311610ae057829003601f168201915b505050505081526020019060010190610a55565b50505050915080805480602002602001604051908101604052809291908181526020016000905b82821015610bf4578382906000526020600020018054600181600116156101000203166002900480601f016020809104026020016040519081016040528092919081815260200182805460018160011615610100020316600290048015610be05780601f10610bb557610100808354040283529160200191610be0565b820191906000526020600020905b815481529060010190602001808311610bc357829003601f168201915b505050505081526020019060010190610b38565b5050505090509450945094509450509193509193565b60006001905090565b60008160035410158015610c275750600082115b610c66576040517f08c379a0000000000000000000000000000000000000000000000000000000008152600401610c5d90614968565b60405180910390fd5b600060046000848152602001908152602001600020905080600b0160009054906101000a900460ff1615610c9e576002915050610df2565b80600701544311610cb3576000915050610df2565b80600801544311610cc8576001915050610df2565b80600a01548160090154111580610ce95750610ce261091a565b8160090154105b15610cf8576003915050610df2565b600081600201541415610d0f576004915050610df2565b80600b0160019054906101000a900460ff1615610d30576007915050610df2565b610ddc81600201546000809054906101000a900473ffffffffffffffffffffffffffffffffffffffff1673ffffffffffffffffffffffffffffffffffffffff1663c1a287e26040518163ffffffff1660e01b815260040160206040518083038186803b158015610d9f57600080fd5b505afa158015610db3573d6000803e3d6000fd5b505050506040513d601f19601f82011682018060405250610dd7919081019061339c565b61266f565b4210610dec576006915050610df2565b60059150505b919050565b6000610e0282610c13565b9050600780811115610e1057fe5b816007811115610e1c57fe5b1415610e5d576040517f08c379a0000000000000000000000000000000000000000000000000000000008152600401610e5490614b08565b60405180910390fd5b6000600460008481526020019081526020016000209050600260009054906101000a900473ffffffffffffffffffffffffffffffffffffffff1673ffffffffffffffffffffffffffffffffffffffff163373ffffffffffffffffffffffffffffffffffffffff161480610fbe5750610ed36115ed565b600160009054906101000a900473ffffffffffffffffffffffffffffffffffffffff1673ffffffffffffffffffffffffffffffffffffffff1663782d6fe18360010160009054906101000a900473ffffffffffffffffffffffffffffffffffffffff16610f414360016126c4565b6040518363ffffffff1660e01b8152600401610f5e929190614608565b60206040518083038186803b158015610f7657600080fd5b505afa158015610f8a573d6000803e3d6000fd5b505050506040513d601f19601f82011682018060405250610fae91908101906134b4565b6bffffffffffffffffffffffff16105b610ffd576040517f08c379a0000000000000000000000000000000000000000000000000000000008152600401610ff490614a48565b60405180910390fd5b600181600b0160006101000a81548160ff02191690831515021790555060008090505b8160030180549050811015611156576000809054906101000a900473ffffffffffffffffffffffffffffffffffffffff1673ffffffffffffffffffffffffffffffffffffffff1663591fcdfe83600301838154811061107b57fe5b9060005260206000200160009054906101000a900473ffffffffffffffffffffffffffffffffffffffff168460040184815481106110b557fe5b90600052602060002001548560050185815481106110cf57fe5b906000526020600020018660060186815481106110e857fe5b9060005260206000200187600201546040518663ffffffff1660e01b81526004016111179594939291906146d7565b600060405180830381600087803b15801561113157600080fd5b505af1158015611145573d6000803e3d6000fd5b505050508080600101915050611020565b507f789cf55be980739dad1d0699b93b58e806b51c9d96619bfa8fe0a28abaa7b30c836040516111869190614ba3565b60405180910390a1505050565b600260009054906101000a900473ffffffffffffffffffffffffffffffffffffffff1681565b60006040516111c79061453b565b60405180910390206040518060400160405280601681526020017f3c546f6b656e3e20476f7665726e6f7220416c7068610000000000000000000081525080519060200120611214612714565b3060405160200161122894939291906147b4565b604051602081830303815290604052805190602001209050600060405161124e90614550565b6040518091039020878760405160200161126a939291906147f9565b60405160208183030381529060405280519060200120905060008282604051602001611297929190614504565b6040516020818303038152906040528051906020012090506000600182888888604051600081526020016040526040516112d49493929190614830565b6020604051602081039080840390855afa1580156112f6573d6000803e3d6000fd5b505050602060405103519050600073ffffffffffffffffffffffffffffffffffffffff168173ffffffffffffffffffffffffffffffffffffffff161415611372576040517f08c379a000000000000000000000000000000000000000000000000000000000815260040161136990614ac8565b60405180910390fd5b61137d818a8a6123a0565b505050505050505050565b600260009054906101000a900473ffffffffffffffffffffffffffffffffffffffff1673ffffffffffffffffffffffffffffffffffffffff163373ffffffffffffffffffffffffffffffffffffffff1614611418576040517f08c379a000000000000000000000000000000000000000000000000000000000815260040161140f90614b68565b60405180910390fd5b6000600260006101000a81548173ffffffffffffffffffffffffffffffffffffffff021916908373ffffffffffffffffffffffffffffffffffffffff160217905550565b6000600a905090565b600260009054906101000a900473ffffffffffffffffffffffffffffffffffffffff1673ffffffffffffffffffffffffffffffffffffffff163373ffffffffffffffffffffffffffffffffffffffff16146114f5576040517f08c379a00000000000000000000000000000000000000000000000000000000081526004016114ec906149c8565b60405180910390fd5b6000809054906101000a900473ffffffffffffffffffffffffffffffffffffffff1673ffffffffffffffffffffffffffffffffffffffff16633a66f9016000809054906101000a900473ffffffffffffffffffffffffffffffffffffffff166000856040516020016115679190614565565b604051602081830303815290604052856040518563ffffffff1660e01b815260040161159694939291906145a9565b602060405180830381600087803b1580156115b057600080fd5b505af11580156115c4573d6000803e3d6000fd5b505050506040513d601f19601f820116820180604052506115e89190810190613309565b505050565b60006a084595161401484a000000905090565b600260009054906101000a900473ffffffffffffffffffffffffffffffffffffffff1673ffffffffffffffffffffffffffffffffffffffff163373ffffffffffffffffffffffffffffffffffffffff1614611690576040517f08c379a0000000000000000000000000000000000000000000000000000000008152600401611687906148e8565b60405180910390fd5b6000809054906101000a900473ffffffffffffffffffffffffffffffffffffffff1673ffffffffffffffffffffffffffffffffffffffff16630e18b6816040518163ffffffff1660e01b8152600401600060405180830381600087803b1580156116f957600080fd5b505af115801561170d573d6000803e3d6000fd5b50505050565b6000809054906101000a900473ffffffffffffffffffffffffffffffffffffffff1681565b60035481565b60006117486115ed565b600160009054906101000a900473ffffffffffffffffffffffffffffffffffffffff1673ffffffffffffffffffffffffffffffffffffffff1663782d6fe1336117924360016126c4565b6040518363ffffffff1660e01b81526004016117af929190614580565b60206040518083038186803b1580156117c757600080fd5b505afa1580156117db573d6000803e3d6000fd5b505050506040513d601f19601f820116820180604052506117ff91908101906134b4565b6bffffffffffffffffffffffff161161184d576040517f08c379a000000000000000000000000000000000000000000000000000000000815260040161184490614aa8565b60405180910390fd5b8451865114801561185f575083518651145b801561186c575082518651145b6118ab576040517f08c379a00000000000000000000000000000000000000000000000000000000081526004016118a290614a28565b60405180910390fd5b6000865114156118f0576040517f08c379a00000000000000000000000000000000000000000000000000000000081526004016118e790614a88565b60405180910390fd5b6118f861145c565b8651111561193b576040517f08c379a0000000000000000000000000000000000000000000000000000000008152600401611932906149e8565b60405180910390fd5b6000600560003373ffffffffffffffffffffffffffffffffffffffff1673ffffffffffffffffffffffffffffffffffffffff16815260200190815260200160002054905060008114611a4a57600061199282610c13565b9050600160078111156119a157fe5b8160078111156119ad57fe5b14156119ee576040517f08c379a00000000000000000000000000000000000000000000000000000000081526004016119e590614ae8565b60405180910390fd5b600060078111156119fb57fe5b816007811115611a0757fe5b1415611a48576040517f08c379a0000000000000000000000000000000000000000000000000000000008152600401611a3f906149a8565b60405180910390fd5b505b6000611a5d43611a58610c0a565b61266f565b90506000611a7282611a6d6106e6565b61266f565b9050600360008154809291906001019190505550611a8e6128f5565b604051806101a0016040528060035481526020013373ffffffffffffffffffffffffffffffffffffffff168152602001600081526020018b81526020018a815260200189815260200188815260200184815260200183815260200160008152602001600081526020016000151581526020016000151581525090508060046000836000015181526020019081526020016000206000820151816000015560208201518160010160006101000a81548173ffffffffffffffffffffffffffffffffffffffff021916908373ffffffffffffffffffffffffffffffffffffffff160217905550604082015181600201556060820151816003019080519060200190611b98929190612977565b506080820151816004019080519060200190611bb5929190612a01565b5060a0820151816005019080519060200190611bd2929190612a4e565b5060c0820151816006019080519060200190611bef929190612aae565b5060e082015181600701556101008201518160080155610120820151816009015561014082015181600a015561016082015181600b0160006101000a81548160ff02191690831515021790555061018082015181600b0160016101000a81548160ff021916908315150217905550905050806000015160056000836020015173ffffffffffffffffffffffffffffffffffffffff1673ffffffffffffffffffffffffffffffffffffffff168152602001908152602001600020819055507f7d84a6263ae0d98d3329bd7b46bb4e8d6f98cd35a7adb45c274c8b7fd5ebd5e08160000151338c8c8c8c89898e604051611cef99989796959493929190614bbe565b60405180910390a1806000015194505050505095945050505050565b60046007811115611d1857fe5b611d2182610c13565b6007811115611d2c57fe5b14611d6c576040517f08c379a0000000000000000000000000000000000000000000000000000000008152600401611d6390614908565b60405180910390fd5b60006004600083815260200190815260200160002090506000611e2d426000809054906101000a900473ffffffffffffffffffffffffffffffffffffffff1673ffffffffffffffffffffffffffffffffffffffff16636a42b8f86040518163ffffffff1660e01b815260040160206040518083038186803b158015611df057600080fd5b505afa158015611e04573d6000803e3d6000fd5b505050506040513d601f19601f82011682018060405250611e28919081019061339c565b61266f565b905060008090505b826003018054905081101561201257612005836003018281548110611e5657fe5b9060005260206000200160009054906101000a900473ffffffffffffffffffffffffffffffffffffffff16846004018381548110611e9057fe5b9060005260206000200154856005018481548110611eaa57fe5b906000526020600020018054600181600116156101000203166002900480601f016020809104026020016040519081016040528092919081815260200182805460018160011615610100020316600290048015611f485780601f10611f1d57610100808354040283529160200191611f48565b820191906000526020600020905b815481529060010190602001808311611f2b57829003601f168201915b5050505050866006018581548110611f5c57fe5b906000526020600020018054600181600116156101000203166002900480601f016020809104026020016040519081016040528092919081815260200182805460018160011615610100020316600290048015611ffa5780601f10611fcf57610100808354040283529160200191611ffa565b820191906000526020600020905b815481529060010190602001808311611fdd57829003601f168201915b505050505086612721565b8080600101915050611e35565b508082600201819055507f9a2e42fd6722813d69113e7d0079d3d940171428df7373df9c7f7617cfda2892838260405161204d929190614cfb565b60405180910390a1505050565b60405161206690614550565b604051809103902081565b612079612b0e565b60046000848152602001908152602001600020600c0160008373ffffffffffffffffffffffffffffffffffffffff1673ffffffffffffffffffffffffffffffffffffffff1681526020019081526020016000206040518060600160405290816000820160009054906101000a900460ff161515151581526020016000820160019054906101000a900460ff161515151581526020016000820160029054906101000a90046bffffffffffffffffffffffff166bffffffffffffffffffffffff166bffffffffffffffffffffffff1681525050905092915050565b6005600781111561216057fe5b61216982610c13565b600781111561217457fe5b146121b4576040517f08c379a00000000000000000000000000000000000000000000000000000000081526004016121ab90614928565b60405180910390fd5b6000600460008381526020019081526020016000209050600181600b0160016101000a81548160ff02191690831515021790555060008090505b8160030180549050811015612364576000809054906101000a900473ffffffffffffffffffffffffffffffffffffffff1673ffffffffffffffffffffffffffffffffffffffff16630825f38f83600401838154811061224957fe5b906000526020600020015484600301848154811061226357fe5b9060005260206000200160009054906101000a900473ffffffffffffffffffffffffffffffffffffffff1685600401858154811061229d57fe5b90600052602060002001548660050186815481106122b757fe5b906000526020600020018760060187815481106122d057fe5b9060005260206000200188600201546040518763ffffffff1660e01b81526004016122ff9594939291906146d7565b6000604051808303818588803b15801561231857600080fd5b505af115801561232c573d6000803e3d6000fd5b50505050506040513d6000823e3d601f19601f820116820180604052506123569190810190613332565b5080806001019150506121ee565b507f712ae1383f79ac853f8d882153778e0260ef8f03b504e2866e0593e04d2b291f826040516123949190614ba3565b60405180910390a15050565b600160078111156123ad57fe5b6123b683610c13565b60078111156123c157fe5b14612401576040517f08c379a00000000000000000000000000000000000000000000000000000000081526004016123f890614b28565b60405180910390fd5b6000600460008481526020019081526020016000209050600081600c0160008673ffffffffffffffffffffffffffffffffffffffff1673ffffffffffffffffffffffffffffffffffffffff1681526020019081526020016000209050600015158160000160009054906101000a900460ff161515146124b5576040517f08c379a00000000000000000000000000000000000000000000000000000000081526004016124ac90614988565b60405180910390fd5b6000600160009054906101000a900473ffffffffffffffffffffffffffffffffffffffff1673ffffffffffffffffffffffffffffffffffffffff1663782d6fe18785600701546040518363ffffffff1660e01b8152600401612518929190614608565b60206040518083038186803b15801561253057600080fd5b505afa158015612544573d6000803e3d6000fd5b505050506040513d601f19601f8201168201806040525061256891908101906134b4565b905083156125995761258c8360090154826bffffffffffffffffffffffff1661266f565b83600901819055506125be565b6125b583600a0154826bffffffffffffffffffffffff1661266f565b83600a01819055505b60018260000160006101000a81548160ff021916908315150217905550838260000160016101000a81548160ff021916908315150217905550808260000160026101000a8154816bffffffffffffffffffffffff02191690836bffffffffffffffffffffffff1602179055507f877856338e13f63d0c36822ff0ef736b80934cd90574a3a5bc9262c39d217c468686868460405161265f9493929190614631565b60405180910390a1505050505050565b6000808284019050838110156126ba576040517f08c379a00000000000000000000000000000000000000000000000000000000081526004016126b190614a08565b60405180910390fd5b8091505092915050565b600082821115612709576040517f08c379a000000000000000000000000000000000000000000000000000000000815260040161270090614b48565b60405180910390fd5b818303905092915050565b6000804690508091505090565b6000809054906101000a900473ffffffffffffffffffffffffffffffffffffffff1673ffffffffffffffffffffffffffffffffffffffff1663f2b065378686868686604051602001612777959493929190614676565b604051602081830303815290604052805190602001206040518263ffffffff1660e01b81526004016127a99190614799565b60206040518083038186803b1580156127c157600080fd5b505afa1580156127d5573d6000803e3d6000fd5b505050506040513d601f19601f820116820180604052506127f991908101906132e0565b15612839576040517f08c379a000000000000000000000000000000000000000000000000000000000815260040161283090614a68565b60405180910390fd5b6000809054906101000a900473ffffffffffffffffffffffffffffffffffffffff1673ffffffffffffffffffffffffffffffffffffffff16633a66f90186868686866040518663ffffffff1660e01b815260040161289b959493929190614676565b602060405180830381600087803b1580156128b557600080fd5b505af11580156128c9573d6000803e3d6000fd5b505050506040513d601f19601f820116820180604052506128ed9190810190613309565b505050505050565b604051806101a0016040528060008152602001600073ffffffffffffffffffffffffffffffffffffffff1681526020016000815260200160608152602001606081526020016060815260200160608152602001600081526020016000815260200160008152602001600081526020016000151581526020016000151581525090565b8280548282559060005260206000209081019282156129f0579160200282015b828111156129ef5782518260006101000a81548173ffffffffffffffffffffffffffffffffffffffff021916908373ffffffffffffffffffffffffffffffffffffffff16021790555091602001919060010190612997565b5b5090506129fd9190612b41565b5090565b828054828255906000526020600020908101928215612a3d579160200282015b82811115612a3c578251825591602001919060010190612a21565b5b509050612a4a9190612b84565b5090565b828054828255906000526020600020908101928215612a9d579160200282015b82811115612a9c578251829080519060200190612a8c929190612ba9565b5091602001919060010190612a6e565b5b509050612aaa9190612c29565b5090565b828054828255906000526020600020908101928215612afd579160200282015b82811115612afc578251829080519060200190612aec929190612c55565b5091602001919060010190612ace565b5b509050612b0a9190612cd5565b5090565b604051806060016040528060001515815260200160001515815260200160006bffffffffffffffffffffffff1681525090565b612b8191905b80821115612b7d57600081816101000a81549073ffffffffffffffffffffffffffffffffffffffff021916905550600101612b47565b5090565b90565b612ba691905b80821115612ba2576000816000905550600101612b8a565b5090565b90565b828054600181600116156101000203166002900490600052602060002090601f016020900481019282601f10612bea57805160ff1916838001178555612c18565b82800160010185558215612c18579182015b82811115612c17578251825591602001919060010190612bfc565b5b509050612c259190612b84565b5090565b612c5291905b80821115612c4e5760008181612c459190612d01565b50600101612c2f565b5090565b90565b828054600181600116156101000203166002900490600052602060002090601f016020900481019282601f10612c9657805160ff1916838001178555612cc4565b82800160010185558215612cc4579182015b82811115612cc3578251825591602001919060010190612ca8565b5b509050612cd19190612b84565b5090565b612cfe91905b80821115612cfa5760008181612cf19190612d49565b50600101612cdb565b5090565b90565b50805460018160011615610100020316600290046000825580601f10612d275750612d46565b601f016020900490600052602060002090810190612d459190612b84565b5b50565b50805460018160011615610100020316600290046000825580601f10612d6f5750612d8e565b601f016020900490600052602060002090810190612d8d9190612b84565b5b50565b600081359050612da0816151d2565b92915050565b600082601f830112612db757600080fd5b8135612dca612dc582614d51565b614d24565b91508181835260208401935060208101905083856020840282011115612def57600080fd5b60005b83811015612e1f5781612e058882612d91565b845260208401935060208301925050600181019050612df2565b5050505092915050565b600082601f830112612e3a57600080fd5b8135612e4d612e4882614d79565b614d24565b9150818183526020840193506020810190508360005b83811015612e935781358601612e798882612fe8565b845260208401935060208301925050600181019050612e63565b5050505092915050565b600082601f830112612eae57600080fd5b8135612ec1612ebc82614da1565b614d24565b9150818183526020840193506020810190508360005b83811015612f075781358601612eed8882613090565b845260208401935060208301925050600181019050612ed7565b5050505092915050565b600082601f830112612f2257600080fd5b8135612f35612f3082614dc9565b614d24565b91508181835260208401935060208101905083856020840282011115612f5a57600080fd5b60005b83811015612f8a5781612f708882613138565b845260208401935060208301925050600181019050612f5d565b5050505092915050565b600081359050612fa3816151e9565b92915050565b600081519050612fb8816151e9565b92915050565b600081359050612fcd81615200565b92915050565b600081519050612fe281615200565b92915050565b600082601f830112612ff957600080fd5b813561300c61300782614df1565b614d24565b9150808252602083016020830185838301111561302857600080fd5b613033838284615168565b50505092915050565b600082601f83011261304d57600080fd5b815161306061305b82614e1d565b614d24565b9150808252602083016020830185838301111561307c57600080fd5b613087838284615177565b50505092915050565b600082601f8301126130a157600080fd5b81356130b46130af82614e49565b614d24565b915080825260208301602083018583830111156130d057600080fd5b6130db838284615168565b50505092915050565b600082601f8301126130f557600080fd5b813561310861310382614e75565b614d24565b9150808252602083016020830185838301111561312457600080fd5b61312f838284615168565b50505092915050565b60008135905061314781615217565b92915050565b60008151905061315c81615217565b92915050565b6000813590506131718161522e565b92915050565b60008151905061318681615245565b92915050565b60006020828403121561319e57600080fd5b60006131ac84828501612d91565b91505092915050565b600080604083850312156131c857600080fd5b60006131d685828601612d91565b92505060206131e785828601613138565b9150509250929050565b600080600080600060a0868803121561320957600080fd5b600086013567ffffffffffffffff81111561322357600080fd5b61322f88828901612da6565b955050602086013567ffffffffffffffff81111561324c57600080fd5b61325888828901612f11565b945050604086013567ffffffffffffffff81111561327557600080fd5b61328188828901612e9d565b935050606086013567ffffffffffffffff81111561329e57600080fd5b6132aa88828901612e29565b925050608086013567ffffffffffffffff8111156132c757600080fd5b6132d3888289016130e4565b9150509295509295909350565b6000602082840312156132f257600080fd5b600061330084828501612fa9565b91505092915050565b60006020828403121561331b57600080fd5b600061332984828501612fd3565b91505092915050565b60006020828403121561334457600080fd5b600082015167ffffffffffffffff81111561335e57600080fd5b61336a8482850161303c565b91505092915050565b60006020828403121561338557600080fd5b600061339384828501613138565b91505092915050565b6000602082840312156133ae57600080fd5b60006133bc8482850161314d565b91505092915050565b600080604083850312156133d857600080fd5b60006133e685828601613138565b92505060206133f785828601612d91565b9150509250929050565b6000806040838503121561341457600080fd5b600061342285828601613138565b925050602061343385828601612f94565b9150509250929050565b600080600080600060a0868803121561345557600080fd5b600061346388828901613138565b955050602061347488828901612f94565b945050604061348588828901613162565b935050606061349688828901612fbe565b92505060806134a788828901612fbe565b9150509295509295909350565b6000602082840312156134c657600080fd5b60006134d484828501613177565b91505092915050565b60006134e98383613544565b60208301905092915050565b60006135018383613785565b905092915050565b600061351583836138c2565b905092915050565b600061352983836144b9565b60208301905092915050565b61353e816150b4565b82525050565b61354d8161502a565b82525050565b61355c8161502a565b82525050565b600061356d82614f0b565b6135778185614f97565b935061358283614ea1565b8060005b838110156135b357815161359a88826134dd565b97506135a583614f63565b925050600181019050613586565b5085935050505092915050565b60006135cb82614f16565b6135d58185614fa8565b9350836020820285016135e785614eb1565b8060005b85811015613623578484038952815161360485826134f5565b945061360f83614f70565b925060208a019950506001810190506135eb565b50829750879550505050505092915050565b600061364082614f21565b61364a8185614fb9565b93508360208202850161365c85614ec1565b8060005b8581101561369857848403895281516136798582613509565b945061368483614f7d565b925060208a01995050600181019050613660565b50829750879550505050505092915050565b60006136b582614f2c565b6136bf8185614fca565b93506136ca83614ed1565b8060005b838110156136fb5781516136e2888261351d565b97506136ed83614f8a565b9250506001810190506136ce565b5085935050505092915050565b6137118161503c565b82525050565b6137208161503c565b82525050565b61372f81615048565b82525050565b61374661374182615048565b6151aa565b82525050565b600061375782614f42565b6137618185614fec565b9350613771818560208601615177565b61377a816151b4565b840191505092915050565b600061379082614f37565b61379a8185614fdb565b93506137aa818560208601615177565b6137b3816151b4565b840191505092915050565b6000815460018116600081146137db576001811461380157613845565b607f60028304166137ec8187614fec565b955060ff198316865260208601935050613845565b6002820461380f8187614fec565b955061381a85614ee1565b60005b8281101561383c5781548189015260018201915060208101905061381d565b80880195505050505b505092915050565b613856816150c6565b82525050565b613865816150ea565b82525050565b6138748161510e565b82525050565b61388381615120565b82525050565b600061389482614f58565b61389e818561500e565b93506138ae818560208601615177565b6138b7816151b4565b840191505092915050565b60006138cd82614f4d565b6138d78185614ffd565b93506138e7818560208601615177565b6138f0816151b4565b840191505092915050565b600061390682614f4d565b613910818561500e565b9350613920818560208601615177565b613929816151b4565b840191505092915050565b6000815460018116600081146139515760018114613977576139bb565b607f6002830416613962818761500e565b955060ff1983168652602086019350506139bb565b60028204613985818761500e565b955061399085614ef6565b60005b828110156139b257815481890152600182019150602081019050613993565b80880195505050505b505092915050565b60006139d060398361500e565b91507f476f7665726e6f72416c7068613a3a5f5f61636365707441646d696e3a20736560008301527f6e646572206d75737420626520676f7620677561726469616e000000000000006020830152604082019050919050565b6000613a3660448361500e565b91507f476f7665726e6f72416c7068613a3a71756575653a2070726f706f73616c206360008301527f616e206f6e6c792062652071756575656420696620697420697320737563636560208301527f65646564000000000000000000000000000000000000000000000000000000006040830152606082019050919050565b6000613ac260458361500e565b91507f476f7665726e6f72416c7068613a3a657865637574653a2070726f706f73616c60008301527f2063616e206f6e6c79206265206578656375746564206966206974206973207160208301527f75657565640000000000000000000000000000000000000000000000000000006040830152606082019050919050565b6000613b4e60028361501f565b91507f19010000000000000000000000000000000000000000000000000000000000006000830152600282019050919050565b6000613b8e604c8361500e565b91507f476f7665726e6f72416c7068613a3a5f5f6578656375746553657454696d656c60008301527f6f636b50656e64696e6741646d696e3a2073656e646572206d7573742062652060208301527f676f7620677561726469616e00000000000000000000000000000000000000006040830152606082019050919050565b6000613c1a60188361500e565b91507f73657450656e64696e6741646d696e28616464726573732900000000000000006000830152602082019050919050565b6000613c5a60298361500e565b91507f476f7665726e6f72416c7068613a3a73746174653a20696e76616c696420707260008301527f6f706f73616c20696400000000000000000000000000000000000000000000006020830152604082019050919050565b6000613cc0602d8361500e565b91507f476f7665726e6f72416c7068613a3a5f63617374566f74653a20766f7465722060008301527f616c726561647920766f746564000000000000000000000000000000000000006020830152604082019050919050565b6000613d2660598361500e565b91507f476f7665726e6f72416c7068613a3a70726f706f73653a206f6e65206c69766560008301527f2070726f706f73616c207065722070726f706f7365722c20666f756e6420616e60208301527f20616c72656164792070656e64696e672070726f706f73616c000000000000006040830152606082019050919050565b6000613db2604a8361500e565b91507f476f7665726e6f72416c7068613a3a5f5f717565756553657454696d656c6f6360008301527f6b50656e64696e6741646d696e3a2073656e646572206d75737420626520676f60208301527f7620677561726469616e000000000000000000000000000000000000000000006040830152606082019050919050565b6000613e3e60288361500e565b91507f476f7665726e6f72416c7068613a3a70726f706f73653a20746f6f206d616e7960008301527f20616374696f6e730000000000000000000000000000000000000000000000006020830152604082019050919050565b6000613ea460118361500e565b91507f6164646974696f6e206f766572666c6f770000000000000000000000000000006000830152602082019050919050565b6000613ee460438361501f565b91507f454950373132446f6d61696e28737472696e67206e616d652c75696e7432353660008301527f20636861696e49642c6164647265737320766572696679696e67436f6e74726160208301527f63742900000000000000000000000000000000000000000000000000000000006040830152604382019050919050565b6000613f7060278361501f565b91507f42616c6c6f742875696e743235362070726f706f73616c49642c626f6f6c207360008301527f7570706f727429000000000000000000000000000000000000000000000000006020830152602782019050919050565b6000613fd660448361500e565b91507f476f7665726e6f72416c7068613a3a70726f706f73653a2070726f706f73616c60008301527f2066756e6374696f6e20696e666f726d6174696f6e206172697479206d69736d60208301527f61746368000000000000000000000000000000000000000000000000000000006040830152606082019050919050565b6000614062602f8361500e565b91507f476f7665726e6f72416c7068613a3a63616e63656c3a2070726f706f7365722060008301527f61626f7665207468726573686f6c6400000000000000000000000000000000006020830152604082019050919050565b60006140c860448361500e565b91507f476f7665726e6f72416c7068613a3a5f71756575654f725265766572743a207060008301527f726f706f73616c20616374696f6e20616c72656164792071756575656420617460208301527f20657461000000000000000000000000000000000000000000000000000000006040830152606082019050919050565b6000614154602c8361500e565b91507f476f7665726e6f72416c7068613a3a70726f706f73653a206d7573742070726f60008301527f7669646520616374696f6e7300000000000000000000000000000000000000006020830152604082019050919050565b60006141ba603f8361500e565b91507f476f7665726e6f72416c7068613a3a70726f706f73653a2070726f706f73657260008301527f20766f7465732062656c6f772070726f706f73616c207468726573686f6c64006020830152604082019050919050565b6000614220602f8361500e565b91507f476f7665726e6f72416c7068613a3a63617374566f746542795369673a20696e60008301527f76616c6964207369676e617475726500000000000000000000000000000000006020830152604082019050919050565b600061428660588361500e565b91507f476f7665726e6f72416c7068613a3a70726f706f73653a206f6e65206c69766560008301527f2070726f706f73616c207065722070726f706f7365722c20666f756e6420616e60208301527f20616c7265616479206163746976652070726f706f73616c00000000000000006040830152606082019050919050565b600061431260368361500e565b91507f476f7665726e6f72416c7068613a3a63616e63656c3a2063616e6e6f7420636160008301527f6e63656c2065786563757465642070726f706f73616c000000000000000000006020830152604082019050919050565b6000614378602a8361500e565b91507f476f7665726e6f72416c7068613a3a5f63617374566f74653a20766f74696e6760008301527f20697320636c6f736564000000000000000000000000000000000000000000006020830152604082019050919050565b60006143de60158361500e565b91507f7375627472616374696f6e20756e646572666c6f7700000000000000000000006000830152602082019050919050565b600061441e60368361500e565b91507f476f7665726e6f72416c7068613a3a5f5f61626469636174653a2073656e646560008301527f72206d75737420626520676f7620677561726469616e000000000000000000006020830152604082019050919050565b60608201600082015161448d6000850182613708565b5060208201516144a06020850182613708565b5060408201516144b360408501826144f5565b50505050565b6144c281615085565b82525050565b6144d181615085565b82525050565b6144e08161508f565b82525050565b6144ef81615156565b82525050565b6144fe8161509c565b82525050565b600061450f82613b41565b915061451b8285613735565b60208201915061452b8284613735565b6020820191508190509392505050565b600061454682613ed7565b9150819050919050565b600061455b82613f63565b9150819050919050565b600060208201905061457a6000830184613553565b92915050565b60006040820190506145956000830185613535565b6145a260208301846144c8565b9392505050565b600060a0820190506145be6000830187613553565b6145cb602083018661387a565b81810360408301526145dc81613c0d565b905081810360608301526145f0818561374c565b90506145ff60808301846144c8565b95945050505050565b600060408201905061461d6000830185613553565b61462a60208301846144c8565b9392505050565b60006080820190506146466000830187613553565b61465360208301866144c8565b6146606040830185613717565b61466d60608301846144e6565b95945050505050565b600060a08201905061468b6000830188613553565b61469860208301876144c8565b81810360408301526146aa8186613889565b905081810360608301526146be818561374c565b90506146cd60808301846144c8565b9695505050505050565b600060a0820190506146ec6000830188613553565b6146f960208301876144c8565b818103604083015261470b8186613934565b9050818103606083015261471f81856137be565b905061472e60808301846144c8565b9695505050505050565b600060808201905081810360008301526147528187613562565b9050818103602083015261476681866136aa565b9050818103604083015261477a8185613635565b9050818103606083015261478e81846135c0565b905095945050505050565b60006020820190506147ae6000830184613726565b92915050565b60006080820190506147c96000830187613726565b6147d66020830186613726565b6147e360408301856144c8565b6147f06060830184613553565b95945050505050565b600060608201905061480e6000830186613726565b61481b60208301856144c8565b6148286040830184613717565b949350505050565b60006080820190506148456000830187613726565b61485260208301866144d7565b61485f6040830185613726565b61486c6060830184613726565b95945050505050565b600060208201905061488a600083018461384d565b92915050565b60006020820190506148a5600083018461385c565b92915050565b60006020820190506148c0600083018461386b565b92915050565b600060208201905081810360008301526148e081846138fb565b905092915050565b60006020820190508181036000830152614901816139c3565b9050919050565b6000602082019050818103600083015261492181613a29565b9050919050565b6000602082019050818103600083015261494181613ab5565b9050919050565b6000602082019050818103600083015261496181613b81565b9050919050565b6000602082019050818103600083015261498181613c4d565b9050919050565b600060208201905081810360008301526149a181613cb3565b9050919050565b600060208201905081810360008301526149c181613d19565b9050919050565b600060208201905081810360008301526149e181613da5565b9050919050565b60006020820190508181036000830152614a0181613e31565b9050919050565b60006020820190508181036000830152614a2181613e97565b9050919050565b60006020820190508181036000830152614a4181613fc9565b9050919050565b60006020820190508181036000830152614a6181614055565b9050919050565b60006020820190508181036000830152614a81816140bb565b9050919050565b60006020820190508181036000830152614aa181614147565b9050919050565b60006020820190508181036000830152614ac1816141ad565b9050919050565b60006020820190508181036000830152614ae181614213565b9050919050565b60006020820190508181036000830152614b0181614279565b9050919050565b60006020820190508181036000830152614b2181614305565b9050919050565b60006020820190508181036000830152614b418161436b565b9050919050565b60006020820190508181036000830152614b61816143d1565b9050919050565b60006020820190508181036000830152614b8181614411565b9050919050565b6000606082019050614b9d6000830184614477565b92915050565b6000602082019050614bb860008301846144c8565b92915050565b600061012082019050614bd4600083018c6144c8565b614be1602083018b613535565b8181036040830152614bf3818a613562565b90508181036060830152614c0781896136aa565b90508181036080830152614c1b8188613635565b905081810360a0830152614c2f81876135c0565b9050614c3e60c08301866144c8565b614c4b60e08301856144c8565b818103610100830152614c5e8184613889565b90509a9950505050505050505050565b600061012082019050614c84600083018c6144c8565b614c91602083018b613553565b614c9e604083018a6144c8565b614cab60608301896144c8565b614cb860808301886144c8565b614cc560a08301876144c8565b614cd260c08301866144c8565b614cdf60e0830185613717565b614ced610100830184613717565b9a9950505050505050505050565b6000604082019050614d1060008301856144c8565b614d1d60208301846144c8565b9392505050565b6000604051905081810181811067ffffffffffffffff82111715614d4757600080fd5b8060405250919050565b600067ffffffffffffffff821115614d6857600080fd5b602082029050602081019050919050565b600067ffffffffffffffff821115614d9057600080fd5b602082029050602081019050919050565b600067ffffffffffffffff821115614db857600080fd5b602082029050602081019050919050565b600067ffffffffffffffff821115614de057600080fd5b602082029050602081019050919050565b600067ffffffffffffffff821115614e0857600080fd5b601f19601f8301169050602081019050919050565b600067ffffffffffffffff821115614e3457600080fd5b601f19601f8301169050602081019050919050565b600067ffffffffffffffff821115614e6057600080fd5b601f19601f8301169050602081019050919050565b600067ffffffffffffffff821115614e8c57600080fd5b601f19601f8301169050602081019050919050565b6000819050602082019050919050565b6000819050602082019050919050565b6000819050602082019050919050565b6000819050602082019050919050565b60008190508160005260206000209050919050565b60008190508160005260206000209050919050565b600081519050919050565b600081519050919050565b600081519050919050565b600081519050919050565b600081519050919050565b600081519050919050565b600081519050919050565b600081519050919050565b6000602082019050919050565b6000602082019050919050565b6000602082019050919050565b6000602082019050919050565b600082825260208201905092915050565b600082825260208201905092915050565b600082825260208201905092915050565b600082825260208201905092915050565b600082825260208201905092915050565b600082825260208201905092915050565b600082825260208201905092915050565b600082825260208201905092915050565b600081905092915050565b600061503582615065565b9050919050565b60008115159050919050565b6000819050919050565b6000819050615060826151c5565b919050565b600073ffffffffffffffffffffffffffffffffffffffff82169050919050565b6000819050919050565b600060ff82169050919050565b60006bffffffffffffffffffffffff82169050919050565b60006150bf82615132565b9050919050565b60006150d1826150d8565b9050919050565b60006150e382615065565b9050919050565b60006150f5826150fc565b9050919050565b600061510782615065565b9050919050565b600061511982615052565b9050919050565b600061512b82615085565b9050919050565b600061513d82615144565b9050919050565b600061514f82615065565b9050919050565b60006151618261509c565b9050919050565b82818337600083830152505050565b60005b8381101561519557808201518184015260208101905061517a565b838111156151a4576000848401525b50505050565b6000819050919050565b6000601f19601f8301169050919050565b600881106151cf57fe5b50565b6151db8161502a565b81146151e657600080fd5b50565b6151f28161503c565b81146151fd57600080fd5b50565b61520981615048565b811461521457600080fd5b50565b61522081615085565b811461522b57600080fd5b50565b6152378161508f565b811461524257600080fd5b50565b61524e8161509c565b811461525957600080fd5b5056fea2646970667358221220274d656893ae31d6e952a8f9b08e3e7c3b2c8f0be500c97af1c00cc020c8a84764736f6c63430006000033",
  "source": "pragma solidity ^0.6.0;\r\npragma experimental ABIEncoderV2;\r\n\r\ncontract GovernorAlpha {\r\n    /// @notice The name of this contract\r\n    string public constant name = \"<Token> Governor Alpha\";\r\n\r\n    /// @notice The number of votes in support of a proposal required in order for a quorum to be reached and for a vote to succeed\r\n    function quorumVotes() public pure returns (uint) { return 40000000 * (10 ** 18); } // Change this\r\n\r\n    /// @notice The number of votes required in order for a voter to become a proposer\r\n    function proposalThreshold() public pure returns (uint) { return 10000000 * (10 ** 18); } // Change this\r\n\r\n    /// @notice The maximum number of actions that can be included in a proposal\r\n    function proposalMaxOperations() public pure returns (uint) { return 10; } // 10 actions\r\n\r\n    /// @notice The delay before voting on a proposal may take place, once proposed\r\n    function votingDelay() public pure returns (uint) { return 1; } // 1 block\r\n\r\n    /// @notice The duration of voting on a proposal, in blocks\r\n    function votingPeriod() public pure returns (uint) { return 40320; } // ~7 days in blocks (assuming 15s blocks)\r\n\r\n    /// @notice The address of the DAO Timelock\r\n    TimelockInterface public timelock;\r\n\r\n    /// @notice The address of the Protocol governance token\r\n    TokenInterface public tkn;\r\n\r\n    /// @notice The address of the Governor Guardian\r\n    address public guardian;\r\n\r\n    /// @notice The total number of proposals\r\n    uint public proposalCount;\r\n\r\n    struct Proposal {\r\n        /// @notice Unique id for looking up a proposal\r\n        uint id;\r\n\r\n        /// @notice Creator of the proposal\r\n        address proposer;\r\n\r\n        /// @notice The timestamp that the proposal will be available for execution, set once the vote succeeds\r\n        uint eta;\r\n\r\n        /// @notice the ordered list of target addresses for calls to be made\r\n        address[] targets;\r\n\r\n        /// @notice The ordered list of values (i.e. msg.value) to be passed to the calls to be made\r\n        uint[] values;\r\n\r\n        /// @notice The ordered list of function signatures to be called\r\n        string[] signatures;\r\n\r\n        /// @notice The ordered list of calldata to be passed to each call\r\n        bytes[] calldatas;\r\n\r\n        /// @notice The block at which voting begins: holders must delegate their votes prior to this block\r\n        uint startBlock;\r\n\r\n        /// @notice The block at which voting ends: votes must be cast prior to this block\r\n        uint endBlock;\r\n\r\n        /// @notice Current number of votes in favor of this proposal\r\n        uint forVotes;\r\n\r\n        /// @notice Current number of votes in opposition to this proposal\r\n        uint againstVotes;\r\n\r\n        /// @notice Flag marking whether the proposal has been canceled\r\n        bool canceled;\r\n\r\n        /// @notice Flag marking whether the proposal has been executed\r\n        bool executed;\r\n\r\n        /// @notice Receipts of ballots for the entire set of voters\r\n        mapping (address => Receipt) receipts;\r\n    }\r\n\r\n    /// @notice Ballot receipt record for a voter\r\n    struct Receipt {\r\n        /// @notice Whether or not a vote has been cast\r\n        bool hasVoted;\r\n\r\n        /// @notice Whether or not the voter supports the proposal\r\n        bool support;\r\n\r\n        /// @notice The number of votes the voter had, which were cast\r\n        uint96 votes;\r\n    }\r\n\r\n    /// @notice Possible states that a proposal may be in\r\n    enum ProposalState {\r\n        Pending,\r\n        Active,\r\n        Canceled,\r\n        Defeated,\r\n        Succeeded,\r\n        Queued,\r\n        Expired,\r\n        Executed\r\n    }\r\n\r\n    /// @notice The official record of all proposals ever proposed\r\n    mapping (uint => Proposal) public proposals;\r\n\r\n    /// @notice The latest proposal for each proposer\r\n    mapping (address => uint) public latestProposalIds;\r\n\r\n    /// @notice The EIP-712 typehash for the contract's domain\r\n    bytes32 public constant DOMAIN_TYPEHASH = keccak256(\"EIP712Domain(string name,uint256 chainId,address verifyingContract)\");\r\n\r\n    /// @notice The EIP-712 typehash for the ballot struct used by the contract\r\n    bytes32 public constant BALLOT_TYPEHASH = keccak256(\"Ballot(uint256 proposalId,bool support)\");\r\n\r\n    /// @notice An event emitted when a new proposal is created\r\n    event ProposalCreated(uint id, address proposer, address[] targets, uint[] values, string[] signatures, bytes[] calldatas, uint startBlock, uint endBlock, string description);\r\n\r\n    /// @notice An event emitted when a vote has been cast on a proposal\r\n    event VoteCast(address voter, uint proposalId, bool support, uint votes);\r\n\r\n    /// @notice An event emitted when a proposal has been canceled\r\n    event ProposalCanceled(uint id);\r\n\r\n    /// @notice An event emitted when a proposal has been queued in the Timelock\r\n    event ProposalQueued(uint id, uint eta);\r\n\r\n    /// @notice An event emitted when a proposal has been executed in the Timelock\r\n    event ProposalExecuted(uint id);\r\n\r\n    constructor(address timelock_, address tkn_, address guardian_) public {\r\n        timelock = TimelockInterface(timelock_);\r\n        tkn = TokenInterface(tkn_);\r\n        guardian = guardian_;\r\n    }\r\n\r\n    function propose(address[] memory targets, uint[] memory values, string[] memory signatures, bytes[] memory calldatas, string memory description) public returns (uint) {\r\n        require(tkn.getPriorVotes(msg.sender, sub256(block.number, 1)) > proposalThreshold(), \"GovernorAlpha::propose: proposer votes below proposal threshold\");\r\n        require(targets.length == values.length && targets.length == signatures.length && targets.length == calldatas.length, \"GovernorAlpha::propose: proposal function information arity mismatch\");\r\n        require(targets.length != 0, \"GovernorAlpha::propose: must provide actions\");\r\n        require(targets.length <= proposalMaxOperations(), \"GovernorAlpha::propose: too many actions\");\r\n\r\n        uint latestProposalId = latestProposalIds[msg.sender];\r\n        if (latestProposalId != 0) {\r\n          ProposalState proposersLatestProposalState = state(latestProposalId);\r\n          require(proposersLatestProposalState != ProposalState.Active, \"GovernorAlpha::propose: one live proposal per proposer, found an already active proposal\");\r\n          require(proposersLatestProposalState != ProposalState.Pending, \"GovernorAlpha::propose: one live proposal per proposer, found an already pending proposal\");\r\n        }\r\n\r\n        uint startBlock = add256(block.number, votingDelay());\r\n        uint endBlock = add256(startBlock, votingPeriod());\r\n\r\n        proposalCount++;\r\n        Proposal memory newProposal = Proposal({\r\n            id: proposalCount,\r\n            proposer: msg.sender,\r\n            eta: 0,\r\n            targets: targets,\r\n            values: values,\r\n            signatures: signatures,\r\n            calldatas: calldatas,\r\n            startBlock: startBlock,\r\n            endBlock: endBlock,\r\n            forVotes: 0,\r\n            againstVotes: 0,\r\n            canceled: false,\r\n            executed: false\r\n        });\r\n\r\n        proposals[newProposal.id] = newProposal;\r\n        latestProposalIds[newProposal.proposer] = newProposal.id;\r\n\r\n        emit ProposalCreated(newProposal.id, msg.sender, targets, values, signatures, calldatas, startBlock, endBlock, description);\r\n        return newProposal.id;\r\n    }\r\n\r\n    function queue(uint proposalId) public {\r\n        require(state(proposalId) == ProposalState.Succeeded, \"GovernorAlpha::queue: proposal can only be queued if it is succeeded\");\r\n        Proposal storage proposal = proposals[proposalId];\r\n        uint eta = add256(block.timestamp, timelock.delay());\r\n        for (uint i = 0; i < proposal.targets.length; i++) {\r\n            _queueOrRevert(proposal.targets[i], proposal.values[i], proposal.signatures[i], proposal.calldatas[i], eta);\r\n        }\r\n        proposal.eta = eta;\r\n        emit ProposalQueued(proposalId, eta);\r\n    }\r\n\r\n    function _queueOrRevert(address target, uint value, string memory signature, bytes memory data, uint eta) internal {\r\n        require(!timelock.queuedTransactions(keccak256(abi.encode(target, value, signature, data, eta))), \"GovernorAlpha::_queueOrRevert: proposal action already queued at eta\");\r\n        timelock.queueTransaction(target, value, signature, data, eta);\r\n    }\r\n\r\n    function execute(uint proposalId) public payable {\r\n        require(state(proposalId) == ProposalState.Queued, \"GovernorAlpha::execute: proposal can only be executed if it is queued\");\r\n        Proposal storage proposal = proposals[proposalId];\r\n        proposal.executed = true;\r\n        for (uint i = 0; i < proposal.targets.length; i++) {\r\n            timelock.executeTransaction.value(proposal.values[i])(proposal.targets[i], proposal.values[i], proposal.signatures[i], proposal.calldatas[i], proposal.eta);\r\n        }\r\n        emit ProposalExecuted(proposalId);\r\n    }\r\n\r\n    function cancel(uint proposalId) public {\r\n        ProposalState state = state(proposalId);\r\n        require(state != ProposalState.Executed, \"GovernorAlpha::cancel: cannot cancel executed proposal\");\r\n\r\n        Proposal storage proposal = proposals[proposalId];\r\n        require(msg.sender == guardian || tkn.getPriorVotes(proposal.proposer, sub256(block.number, 1)) < proposalThreshold(), \"GovernorAlpha::cancel: proposer above threshold\");\r\n\r\n        proposal.canceled = true;\r\n        for (uint i = 0; i < proposal.targets.length; i++) {\r\n            timelock.cancelTransaction(proposal.targets[i], proposal.values[i], proposal.signatures[i], proposal.calldatas[i], proposal.eta);\r\n        }\r\n\r\n        emit ProposalCanceled(proposalId);\r\n    }\r\n\r\n    function getActions(uint proposalId) public view returns (address[] memory targets, uint[] memory values, string[] memory signatures, bytes[] memory calldatas) {\r\n        Proposal storage p = proposals[proposalId];\r\n        return (p.targets, p.values, p.signatures, p.calldatas);\r\n    }\r\n\r\n    function getReceipt(uint proposalId, address voter) public view returns (Receipt memory) {\r\n        return proposals[proposalId].receipts[voter];\r\n    }\r\n\r\n    function state(uint proposalId) public view returns (ProposalState) {\r\n        require(proposalCount >= proposalId && proposalId > 0, \"GovernorAlpha::state: invalid proposal id\");\r\n        Proposal storage proposal = proposals[proposalId];\r\n        if (proposal.canceled) {\r\n            return ProposalState.Canceled;\r\n        } else if (block.number <= proposal.startBlock) {\r\n            return ProposalState.Pending;\r\n        } else if (block.number <= proposal.endBlock) {\r\n            return ProposalState.Active;\r\n        } else if (proposal.forVotes <= proposal.againstVotes || proposal.forVotes < quorumVotes()) {\r\n            return ProposalState.Defeated;\r\n        } else if (proposal.eta == 0) {\r\n            return ProposalState.Succeeded;\r\n        } else if (proposal.executed) {\r\n            return ProposalState.Executed;\r\n        } else if (block.timestamp >= add256(proposal.eta, timelock.GRACE_PERIOD())) {\r\n            return ProposalState.Expired;\r\n        } else {\r\n            return ProposalState.Queued;\r\n        }\r\n    }\r\n\r\n    function castVote(uint proposalId, bool support) public {\r\n        return _castVote(msg.sender, proposalId, support);\r\n    }\r\n\r\n    function castVoteBySig(uint proposalId, bool support, uint8 v, bytes32 r, bytes32 s) public {\r\n        bytes32 domainSeparator = keccak256(abi.encode(DOMAIN_TYPEHASH, keccak256(bytes(name)), getChainId(), address(this)));\r\n        bytes32 structHash = keccak256(abi.encode(BALLOT_TYPEHASH, proposalId, support));\r\n        bytes32 digest = keccak256(abi.encodePacked(\"\\x19\\x01\", domainSeparator, structHash));\r\n        address signatory = ecrecover(digest, v, r, s);\r\n        require(signatory != address(0), \"GovernorAlpha::castVoteBySig: invalid signature\");\r\n        return _castVote(signatory, proposalId, support);\r\n    }\r\n\r\n    function _castVote(address voter, uint proposalId, bool support) internal {\r\n        require(state(proposalId) == ProposalState.Active, \"GovernorAlpha::_castVote: voting is closed\");\r\n        Proposal storage proposal = proposals[proposalId];\r\n        Receipt storage receipt = proposal.receipts[voter];\r\n        require(receipt.hasVoted == false, \"GovernorAlpha::_castVote: voter already voted\");\r\n        uint96 votes = tkn.getPriorVotes(voter, proposal.startBlock);\r\n\r\n        if (support) {\r\n            proposal.forVotes = add256(proposal.forVotes, votes);\r\n        } else {\r\n            proposal.againstVotes = add256(proposal.againstVotes, votes);\r\n        }\r\n\r\n        receipt.hasVoted = true;\r\n        receipt.support = support;\r\n        receipt.votes = votes;\r\n\r\n        emit VoteCast(voter, proposalId, support, votes);\r\n    }\r\n\r\n    function __acceptAdmin() public {\r\n        require(msg.sender == guardian, \"GovernorAlpha::__acceptAdmin: sender must be gov guardian\");\r\n        timelock.acceptAdmin();\r\n    }\r\n\r\n    function __abdicate() public {\r\n        require(msg.sender == guardian, \"GovernorAlpha::__abdicate: sender must be gov guardian\");\r\n        guardian = address(0);\r\n    }\r\n\r\n    function __queueSetTimelockPendingAdmin(address newPendingAdmin, uint eta) public {\r\n        require(msg.sender == guardian, \"GovernorAlpha::__queueSetTimelockPendingAdmin: sender must be gov guardian\");\r\n        timelock.queueTransaction(address(timelock), 0, \"setPendingAdmin(address)\", abi.encode(newPendingAdmin), eta);\r\n    }\r\n\r\n    function __executeSetTimelockPendingAdmin(address newPendingAdmin, uint eta) public {\r\n        require(msg.sender == guardian, \"GovernorAlpha::__executeSetTimelockPendingAdmin: sender must be gov guardian\");\r\n        timelock.executeTransaction(address(timelock), 0, \"setPendingAdmin(address)\", abi.encode(newPendingAdmin), eta);\r\n    }\r\n\r\n    function add256(uint256 a, uint256 b) internal pure returns (uint) {\r\n        uint c = a + b;\r\n        require(c >= a, \"addition overflow\");\r\n        return c;\r\n    }\r\n\r\n    function sub256(uint256 a, uint256 b) internal pure returns (uint) {\r\n        require(b <= a, \"subtraction underflow\");\r\n        return a - b;\r\n    }\r\n\r\n    function getChainId() internal pure returns (uint) {\r\n        uint chainId;\r\n        assembly { chainId := chainid() }\r\n        return chainId;\r\n    }\r\n}\r\n\r\ninterface TimelockInterface {\r\n    function delay() external view returns (uint);\r\n    function GRACE_PERIOD() external view returns (uint);\r\n    function acceptAdmin() external;\r\n    function queuedTransactions(bytes32 hash) external view returns (bool);\r\n    function queueTransaction(address target, uint value, string calldata signature, bytes calldata data, uint eta) external returns (bytes32);\r\n    function cancelTransaction(address target, uint value, string calldata signature, bytes calldata data, uint eta) external;\r\n    function executeTransaction(address target, uint value, string calldata signature, bytes calldata data, uint eta) external payable returns (bytes memory);\r\n}\r\n\r\ninterface TokenInterface {\r\n    function getPriorVotes(address account, uint blockNumber) external view returns (uint96);\r\n}",
  "sourcePath": "/mnt/e/Projects/tests/comp-fork/contracts/GovernorAlpha.sol",
  "compiler": {
    "name": "solc",
    "version": "0.6.0+commit.26b70077.Emscripten.clang"
  },
  "schemaVersion": "3.2.4",
  "updatedAt": "2020-10-21T04:55:16.691Z",
  "networkType": "ethereum",
  "devdoc": {
    "methods": {}
  },
  "userdoc": {
    "methods": {
      "proposalMaxOperations()": {
        "notice": "The maximum number of actions that can be included in a proposal"
      },
      "proposalThreshold()": {
        "notice": "The number of votes required in order for a voter to become a proposer"
      },
      "quorumVotes()": {
        "notice": "The number of votes in support of a proposal required in order for a quorum to be reached and for a vote to succeed"
      },
      "votingDelay()": {
        "notice": "The delay before voting on a proposal may take place, once proposed"
      },
      "votingPeriod()": {
        "notice": "The duration of voting on a proposal, in blocks"
      }
    }
  }
}