{
  "contractName": "GovernorAlpha",
  "abi": [
    {
      "inputs": [
        {
          "internalType": "address",
          "name": "timelock_",
          "type": "address"
        },
        {
          "internalType": "address",
          "name": "tkn_",
          "type": "address"
        }
      ],
      "stateMutability": "nonpayable",
      "type": "constructor"
    },
    {
      "anonymous": false,
      "inputs": [
        {
          "indexed": false,
          "internalType": "uint256",
          "name": "id",
          "type": "uint256"
        }
      ],
      "name": "ProposalCanceled",
      "type": "event"
    },
    {
      "anonymous": false,
      "inputs": [
        {
          "indexed": false,
          "internalType": "uint256",
          "name": "id",
          "type": "uint256"
        },
        {
          "indexed": false,
          "internalType": "address",
          "name": "proposer",
          "type": "address"
        },
        {
          "indexed": false,
          "internalType": "address[]",
          "name": "targets",
          "type": "address[]"
        },
        {
          "indexed": false,
          "internalType": "uint256[]",
          "name": "values",
          "type": "uint256[]"
        },
        {
          "indexed": false,
          "internalType": "string[]",
          "name": "signatures",
          "type": "string[]"
        },
        {
          "indexed": false,
          "internalType": "bytes[]",
          "name": "calldatas",
          "type": "bytes[]"
        },
        {
          "indexed": false,
          "internalType": "uint256",
          "name": "startBlock",
          "type": "uint256"
        },
        {
          "indexed": false,
          "internalType": "uint256",
          "name": "endBlock",
          "type": "uint256"
        },
        {
          "indexed": false,
          "internalType": "string",
          "name": "description",
          "type": "string"
        }
      ],
      "name": "ProposalCreated",
      "type": "event"
    },
    {
      "anonymous": false,
      "inputs": [
        {
          "indexed": false,
          "internalType": "uint256",
          "name": "id",
          "type": "uint256"
        }
      ],
      "name": "ProposalExecuted",
      "type": "event"
    },
    {
      "anonymous": false,
      "inputs": [
        {
          "indexed": false,
          "internalType": "uint256",
          "name": "id",
          "type": "uint256"
        },
        {
          "indexed": false,
          "internalType": "uint256",
          "name": "eta",
          "type": "uint256"
        }
      ],
      "name": "ProposalQueued",
      "type": "event"
    },
    {
      "anonymous": false,
      "inputs": [
        {
          "indexed": false,
          "internalType": "address",
          "name": "voter",
          "type": "address"
        },
        {
          "indexed": false,
          "internalType": "uint256",
          "name": "proposalId",
          "type": "uint256"
        },
        {
          "indexed": false,
          "internalType": "bool",
          "name": "support",
          "type": "bool"
        },
        {
          "indexed": false,
          "internalType": "uint256",
          "name": "votes",
          "type": "uint256"
        }
      ],
      "name": "VoteCast",
      "type": "event"
    },
    {
      "inputs": [],
      "name": "BALLOT_TYPEHASH",
      "outputs": [
        {
          "internalType": "bytes32",
          "name": "",
          "type": "bytes32"
        }
      ],
      "stateMutability": "view",
      "type": "function"
    },
    {
      "inputs": [],
      "name": "DOMAIN_TYPEHASH",
      "outputs": [
        {
          "internalType": "bytes32",
          "name": "",
          "type": "bytes32"
        }
      ],
      "stateMutability": "view",
      "type": "function"
    },
    {
      "inputs": [
        {
          "internalType": "address",
          "name": "",
          "type": "address"
        }
      ],
      "name": "latestProposalIds",
      "outputs": [
        {
          "internalType": "uint256",
          "name": "",
          "type": "uint256"
        }
      ],
      "stateMutability": "view",
      "type": "function"
    },
    {
      "inputs": [],
      "name": "name",
      "outputs": [
        {
          "internalType": "string",
          "name": "",
          "type": "string"
        }
      ],
      "stateMutability": "view",
      "type": "function"
    },
    {
      "inputs": [],
      "name": "proposalCount",
      "outputs": [
        {
          "internalType": "uint256",
          "name": "",
          "type": "uint256"
        }
      ],
      "stateMutability": "view",
      "type": "function"
    },
    {
      "inputs": [
        {
          "internalType": "uint256",
          "name": "",
          "type": "uint256"
        }
      ],
      "name": "proposals",
      "outputs": [
        {
          "internalType": "uint256",
          "name": "id",
          "type": "uint256"
        },
        {
          "internalType": "address",
          "name": "proposer",
          "type": "address"
        },
        {
          "internalType": "uint256",
          "name": "eta",
          "type": "uint256"
        },
        {
          "internalType": "uint256",
          "name": "startBlock",
          "type": "uint256"
        },
        {
          "internalType": "uint256",
          "name": "endBlock",
          "type": "uint256"
        },
        {
          "internalType": "uint256",
          "name": "forVotes",
          "type": "uint256"
        },
        {
          "internalType": "uint256",
          "name": "againstVotes",
          "type": "uint256"
        },
        {
          "internalType": "bool",
          "name": "canceled",
          "type": "bool"
        },
        {
          "internalType": "bool",
          "name": "executed",
          "type": "bool"
        }
      ],
      "stateMutability": "view",
      "type": "function"
    },
    {
      "inputs": [],
      "name": "timelock",
      "outputs": [
        {
          "internalType": "contract TimelockInterface",
          "name": "",
          "type": "address"
        }
      ],
      "stateMutability": "view",
      "type": "function"
    },
    {
      "inputs": [],
      "name": "tkn",
      "outputs": [
        {
          "internalType": "contract TokenInterface",
          "name": "",
          "type": "address"
        }
      ],
      "stateMutability": "view",
      "type": "function"
    },
    {
      "inputs": [],
      "name": "quorumVotes",
      "outputs": [
        {
          "internalType": "uint256",
          "name": "",
          "type": "uint256"
        }
      ],
      "stateMutability": "pure",
      "type": "function"
    },
    {
      "inputs": [],
      "name": "proposalThreshold",
      "outputs": [
        {
          "internalType": "uint256",
          "name": "",
          "type": "uint256"
        }
      ],
      "stateMutability": "pure",
      "type": "function"
    },
    {
      "inputs": [],
      "name": "proposalMaxOperations",
      "outputs": [
        {
          "internalType": "uint256",
          "name": "",
          "type": "uint256"
        }
      ],
      "stateMutability": "pure",
      "type": "function"
    },
    {
      "inputs": [],
      "name": "votingDelay",
      "outputs": [
        {
          "internalType": "uint256",
          "name": "",
          "type": "uint256"
        }
      ],
      "stateMutability": "pure",
      "type": "function"
    },
    {
      "inputs": [],
      "name": "votingPeriod",
      "outputs": [
        {
          "internalType": "uint256",
          "name": "",
          "type": "uint256"
        }
      ],
      "stateMutability": "pure",
      "type": "function"
    },
    {
      "inputs": [
        {
          "internalType": "address[]",
          "name": "targets",
          "type": "address[]"
        },
        {
          "internalType": "uint256[]",
          "name": "values",
          "type": "uint256[]"
        },
        {
          "internalType": "string[]",
          "name": "signatures",
          "type": "string[]"
        },
        {
          "internalType": "bytes[]",
          "name": "calldatas",
          "type": "bytes[]"
        },
        {
          "internalType": "string",
          "name": "description",
          "type": "string"
        }
      ],
      "name": "propose",
      "outputs": [
        {
          "internalType": "uint256",
          "name": "",
          "type": "uint256"
        }
      ],
      "stateMutability": "nonpayable",
      "type": "function"
    },
    {
      "inputs": [
        {
          "internalType": "uint256",
          "name": "proposalId",
          "type": "uint256"
        }
      ],
      "name": "queue",
      "outputs": [],
      "stateMutability": "nonpayable",
      "type": "function"
    },
    {
      "inputs": [
        {
          "internalType": "uint256",
          "name": "proposalId",
          "type": "uint256"
        }
      ],
      "name": "execute",
      "outputs": [],
      "stateMutability": "payable",
      "type": "function"
    },
    {
      "inputs": [
        {
          "internalType": "uint256",
          "name": "proposalId",
          "type": "uint256"
        }
      ],
      "name": "cancel",
      "outputs": [],
      "stateMutability": "nonpayable",
      "type": "function"
    },
    {
      "inputs": [
        {
          "internalType": "uint256",
          "name": "proposalId",
          "type": "uint256"
        }
      ],
      "name": "getActions",
      "outputs": [
        {
          "internalType": "address[]",
          "name": "targets",
          "type": "address[]"
        },
        {
          "internalType": "uint256[]",
          "name": "values",
          "type": "uint256[]"
        },
        {
          "internalType": "string[]",
          "name": "signatures",
          "type": "string[]"
        },
        {
          "internalType": "bytes[]",
          "name": "calldatas",
          "type": "bytes[]"
        }
      ],
      "stateMutability": "view",
      "type": "function"
    },
    {
      "inputs": [
        {
          "internalType": "uint256",
          "name": "proposalId",
          "type": "uint256"
        },
        {
          "internalType": "address",
          "name": "voter",
          "type": "address"
        }
      ],
      "name": "getReceipt",
      "outputs": [
        {
          "components": [
            {
              "internalType": "bool",
              "name": "hasVoted",
              "type": "bool"
            },
            {
              "internalType": "bool",
              "name": "support",
              "type": "bool"
            },
            {
              "internalType": "uint96",
              "name": "votes",
              "type": "uint96"
            }
          ],
          "internalType": "struct GovernorAlpha.Receipt",
          "name": "",
          "type": "tuple"
        }
      ],
      "stateMutability": "view",
      "type": "function"
    },
    {
      "inputs": [
        {
          "internalType": "uint256",
          "name": "proposalId",
          "type": "uint256"
        }
      ],
      "name": "state",
      "outputs": [
        {
          "internalType": "enum GovernorAlpha.ProposalState",
          "name": "",
          "type": "uint8"
        }
      ],
      "stateMutability": "view",
      "type": "function"
    },
    {
      "inputs": [
        {
          "internalType": "uint256",
          "name": "proposalId",
          "type": "uint256"
        },
        {
          "internalType": "bool",
          "name": "support",
          "type": "bool"
        }
      ],
      "name": "castVote",
      "outputs": [],
      "stateMutability": "nonpayable",
      "type": "function"
    },
    {
      "inputs": [
        {
          "internalType": "uint256",
          "name": "proposalId",
          "type": "uint256"
        },
        {
          "internalType": "bool",
          "name": "support",
          "type": "bool"
        },
        {
          "internalType": "uint8",
          "name": "v",
          "type": "uint8"
        },
        {
          "internalType": "bytes32",
          "name": "r",
          "type": "bytes32"
        },
        {
          "internalType": "bytes32",
          "name": "s",
          "type": "bytes32"
        }
      ],
      "name": "castVoteBySig",
      "outputs": [],
      "stateMutability": "nonpayable",
      "type": "function"
    }
  ],
  "bytecode": "0x60806040523480156200001157600080fd5b5060405162004a0138038062004a018339818101604052620000379190810190620000d7565b816000806101000a81548173ffffffffffffffffffffffffffffffffffffffff021916908373ffffffffffffffffffffffffffffffffffffffff16021790555080600160006101000a81548173ffffffffffffffffffffffffffffffffffffffff021916908373ffffffffffffffffffffffffffffffffffffffff160217905550505062000166565b600081519050620000d1816200014c565b92915050565b60008060408385031215620000eb57600080fd5b6000620000fb85828601620000c0565b92505060206200010e85828601620000c0565b9150509250929050565b600062000125826200012c565b9050919050565b600073ffffffffffffffffffffffffffffffffffffffff82169050919050565b620001578162000118565b81146200016357600080fd5b50565b61488b80620001766000396000f3fe6080604052600436106101355760003560e01c806340e58ee5116100ab578063da35c6641161006f578063da35c66414610437578063da95691a14610462578063ddf0b0091461049f578063deaaa7cc146104c8578063e23a9a52146104f3578063fe0d94c11461053057610135565b806340e58ee5146103645780634634c61f1461038d5780637bdbe4d0146103b6578063b58131b0146103e1578063d33219b41461040c57610135565b806317977c61116100fd57806317977c611461022957806320606b701461026657806324bc1a6414610291578063328dd982146102bc5780633932abb1146102fc5780633e4f49e61461032757610135565b8063013cf08b1461013a57806302a251a31461017f57806305f3a852146101aa57806306fdde03146101d557806315373e3d14610200575b600080fd5b34801561014657600080fd5b50610161600480360361015c9190810190612cab565b61054c565b60405161017699989796959493929190614279565b60405180910390f35b34801561018b57600080fd5b506101946105d4565b6040516101a191906141ae565b60405180910390f35b3480156101b657600080fd5b506101bf6105de565b6040516101cc9190613f1b565b60405180910390f35b3480156101e157600080fd5b506101ea610604565b6040516101f79190613f51565b60405180910390f35b34801561020c57600080fd5b5061022760048036036102229190810190612d39565b61063d565b005b34801561023557600080fd5b50610250600480360361024b9190810190612b00565b61064c565b60405161025d91906141ae565b60405180910390f35b34801561027257600080fd5b5061027b610664565b6040516102889190613e24565b60405180910390f35b34801561029d57600080fd5b506102a661067b565b6040516102b391906141ae565b60405180910390f35b3480156102c857600080fd5b506102e360048036036102de9190810190612cab565b61068e565b6040516102f39493929190613dc3565b60405180910390f35b34801561030857600080fd5b5061031161096b565b60405161031e91906141ae565b60405180910390f35b34801561033357600080fd5b5061034e60048036036103499190810190612cab565b610974565b60405161035b9190613f36565b60405180910390f35b34801561037057600080fd5b5061038b60048036036103869190810190612cab565b610b58565b005b34801561039957600080fd5b506103b460048036036103af9190810190612d75565b610e9c565b005b3480156103c257600080fd5b506103cb61106b565b6040516103d891906141ae565b60405180910390f35b3480156103ed57600080fd5b506103f6611074565b60405161040391906141ae565b60405180910390f35b34801561041857600080fd5b50610421611087565b60405161042e9190613f00565b60405180910390f35b34801561044357600080fd5b5061044c6110ac565b60405161045991906141ae565b60405180910390f35b34801561046e57600080fd5b5061048960048036036104849190810190612b29565b6110b2565b60405161049691906141ae565b60405180910390f35b3480156104ab57600080fd5b506104c660048036036104c19190810190612cab565b61167f565b005b3480156104d457600080fd5b506104dd6119ce565b6040516104ea9190613e24565b60405180910390f35b3480156104ff57600080fd5b5061051a60048036036105159190810190612cfd565b6119e5565b6040516105279190614193565b60405180910390f35b61054a60048036036105459190810190612cab565b611ac7565b005b60036020528060005260406000206000915090508060000154908060010160009054906101000a900473ffffffffffffffffffffffffffffffffffffffff169080600201549080600701549080600801549080600901549080600a01549080600b0160009054906101000a900460ff169080600b0160019054906101000a900460ff16905089565b6000619d80905090565b600160009054906101000a900473ffffffffffffffffffffffffffffffffffffffff1681565b6040518060400160405280601681526020017f3c546f6b656e3e20476f7665726e6f7220416c7068610000000000000000000081525081565b610648338383611d14565b5050565b60046020528060005260406000206000915090505481565b60405161067090613c40565b604051809103902081565b60006a2116545850052128000000905090565b6060806060806000600360008781526020019081526020016000209050806003018160040182600501836006018380548060200260200160405190810160405280929190818152602001828054801561073c57602002820191906000526020600020905b8160009054906101000a900473ffffffffffffffffffffffffffffffffffffffff1673ffffffffffffffffffffffffffffffffffffffff16815260200190600101908083116106f2575b505050505093508280548060200260200160405190810160405280929190818152602001828054801561078e57602002820191906000526020600020905b81548152602001906001019080831161077a575b5050505050925081805480602002602001604051908101604052809291908181526020016000905b82821015610872578382906000526020600020018054600181600116156101000203166002900480601f01602080910402602001604051908101604052809291908181526020018280546001816001161561010002031660029004801561085e5780601f106108335761010080835404028352916020019161085e565b820191906000526020600020905b81548152906001019060200180831161084157829003601f168201915b5050505050815260200190600101906107b6565b50505050915080805480602002602001604051908101604052809291908181526020016000905b82821015610955578382906000526020600020018054600181600116156101000203166002900480601f0160208091040260200160405190810160405280929190818152602001828054600181600116156101000203166002900480156109415780601f1061091657610100808354040283529160200191610941565b820191906000526020600020905b81548152906001019060200180831161092457829003601f168201915b505050505081526020019060010190610899565b5050505090509450945094509450509193509193565b60006001905090565b600081600254101580156109885750600082115b6109c7576040517f08c379a00000000000000000000000000000000000000000000000000000000081526004016109be90613fb3565b60405180910390fd5b600060036000848152602001908152602001600020905080600b0160009054906101000a900460ff16156109ff576002915050610b53565b80600701544311610a14576000915050610b53565b80600801544311610a29576001915050610b53565b80600a01548160090154111580610a4a5750610a4361067b565b8160090154105b15610a59576003915050610b53565b600081600201541415610a70576004915050610b53565b80600b0160019054906101000a900460ff1615610a91576007915050610b53565b610b3d81600201546000809054906101000a900473ffffffffffffffffffffffffffffffffffffffff1673ffffffffffffffffffffffffffffffffffffffff1663c1a287e26040518163ffffffff1660e01b815260040160206040518083038186803b158015610b0057600080fd5b505afa158015610b14573d6000803e3d6000fd5b505050506040513d601f19601f82011682018060405250610b389190810190612cd4565b611fe3565b4210610b4d576006915050610b53565b60059150505b919050565b6000610b6382610974565b9050600780811115610b7157fe5b816007811115610b7d57fe5b1415610bbe576040517f08c379a0000000000000000000000000000000000000000000000000000000008152600401610bb590614133565b60405180910390fd5b6000600360008481526020019081526020016000209050610bdd611074565b600160009054906101000a900473ffffffffffffffffffffffffffffffffffffffff1673ffffffffffffffffffffffffffffffffffffffff1663782d6fe18360010160009054906101000a900473ffffffffffffffffffffffffffffffffffffffff16610c4b436001612038565b6040518363ffffffff1660e01b8152600401610c68929190613c93565b60206040518083038186803b158015610c8057600080fd5b505afa158015610c94573d6000803e3d6000fd5b505050506040513d601f19601f82011682018060405250610cb89190810190612dec565b6bffffffffffffffffffffffff1610610d06576040517f08c379a0000000000000000000000000000000000000000000000000000000008152600401610cfd90614073565b60405180910390fd5b600181600b0160006101000a81548160ff02191690831515021790555060008090505b8160030180549050811015610e5f576000809054906101000a900473ffffffffffffffffffffffffffffffffffffffff1673ffffffffffffffffffffffffffffffffffffffff1663591fcdfe836003018381548110610d8457fe5b9060005260206000200160009054906101000a900473ffffffffffffffffffffffffffffffffffffffff16846004018481548110610dbe57fe5b9060005260206000200154856005018581548110610dd857fe5b90600052602060002001866006018681548110610df157fe5b9060005260206000200187600201546040518663ffffffff1660e01b8152600401610e20959493929190613d62565b600060405180830381600087803b158015610e3a57600080fd5b505af1158015610e4e573d6000803e3d6000fd5b505050508080600101915050610d29565b507f789cf55be980739dad1d0699b93b58e806b51c9d96619bfa8fe0a28abaa7b30c83604051610e8f91906141ae565b60405180910390a1505050565b6000604051610eaa90613c40565b60405180910390206040518060400160405280601681526020017f3c546f6b656e3e20476f7665726e6f7220416c7068610000000000000000000081525080519060200120610ef7612088565b30604051602001610f0b9493929190613e3f565b6040516020818303038152906040528051906020012090506000604051610f3190613c55565b60405180910390208787604051602001610f4d93929190613e84565b60405160208183030381529060405280519060200120905060008282604051602001610f7a929190613c09565b604051602081830303815290604052805190602001209050600060018288888860405160008152602001604052604051610fb79493929190613ebb565b6020604051602081039080840390855afa158015610fd9573d6000803e3d6000fd5b505050602060405103519050600073ffffffffffffffffffffffffffffffffffffffff168173ffffffffffffffffffffffffffffffffffffffff161415611055576040517f08c379a000000000000000000000000000000000000000000000000000000000815260040161104c906140f3565b60405180910390fd5b611060818a8a611d14565b505050505050505050565b6000600a905090565b60006a084595161401484a000000905090565b6000809054906101000a900473ffffffffffffffffffffffffffffffffffffffff1681565b60025481565b60006110bc611074565b600160009054906101000a900473ffffffffffffffffffffffffffffffffffffffff1673ffffffffffffffffffffffffffffffffffffffff1663782d6fe133611106436001612038565b6040518363ffffffff1660e01b8152600401611123929190613c6a565b60206040518083038186803b15801561113b57600080fd5b505afa15801561114f573d6000803e3d6000fd5b505050506040513d601f19601f820116820180604052506111739190810190612dec565b6bffffffffffffffffffffffff16116111c1576040517f08c379a00000000000000000000000000000000000000000000000000000000081526004016111b8906140d3565b60405180910390fd5b845186511480156111d3575083518651145b80156111e0575082518651145b61121f576040517f08c379a000000000000000000000000000000000000000000000000000000000815260040161121690614053565b60405180910390fd5b600086511415611264576040517f08c379a000000000000000000000000000000000000000000000000000000000815260040161125b906140b3565b60405180910390fd5b61126c61106b565b865111156112af576040517f08c379a00000000000000000000000000000000000000000000000000000000081526004016112a690614013565b60405180910390fd5b6000600460003373ffffffffffffffffffffffffffffffffffffffff1673ffffffffffffffffffffffffffffffffffffffff168152602001908152602001600020549050600081146113be57600061130682610974565b90506001600781111561131557fe5b81600781111561132157fe5b1415611362576040517f08c379a000000000000000000000000000000000000000000000000000000000815260040161135990614113565b60405180910390fd5b6000600781111561136f57fe5b81600781111561137b57fe5b14156113bc576040517f08c379a00000000000000000000000000000000000000000000000000000000081526004016113b390613ff3565b60405180910390fd5b505b60006113d1436113cc61096b565b611fe3565b905060006113e6826113e16105d4565b611fe3565b9050600260008154809291906001019190505550611402612269565b604051806101a0016040528060025481526020013373ffffffffffffffffffffffffffffffffffffffff168152602001600081526020018b81526020018a815260200189815260200188815260200184815260200183815260200160008152602001600081526020016000151581526020016000151581525090508060036000836000015181526020019081526020016000206000820151816000015560208201518160010160006101000a81548173ffffffffffffffffffffffffffffffffffffffff021916908373ffffffffffffffffffffffffffffffffffffffff16021790555060408201518160020155606082015181600301908051906020019061150c9291906122eb565b506080820151816004019080519060200190611529929190612375565b5060a08201518160050190805190602001906115469291906123c2565b5060c0820151816006019080519060200190611563929190612422565b5060e082015181600701556101008201518160080155610120820151816009015561014082015181600a015561016082015181600b0160006101000a81548160ff02191690831515021790555061018082015181600b0160016101000a81548160ff021916908315150217905550905050806000015160046000836020015173ffffffffffffffffffffffffffffffffffffffff1673ffffffffffffffffffffffffffffffffffffffff168152602001908152602001600020819055507f7d84a6263ae0d98d3329bd7b46bb4e8d6f98cd35a7adb45c274c8b7fd5ebd5e08160000151338c8c8c8c89898e604051611663999897969594939291906141c9565b60405180910390a1806000015194505050505095945050505050565b6004600781111561168c57fe5b61169582610974565b60078111156116a057fe5b146116e0576040517f08c379a00000000000000000000000000000000000000000000000000000000081526004016116d790613f73565b60405180910390fd5b600060036000838152602001908152602001600020905060006117a1426000809054906101000a900473ffffffffffffffffffffffffffffffffffffffff1673ffffffffffffffffffffffffffffffffffffffff16636a42b8f86040518163ffffffff1660e01b815260040160206040518083038186803b15801561176457600080fd5b505afa158015611778573d6000803e3d6000fd5b505050506040513d601f19601f8201168201806040525061179c9190810190612cd4565b611fe3565b905060008090505b8260030180549050811015611986576119798360030182815481106117ca57fe5b9060005260206000200160009054906101000a900473ffffffffffffffffffffffffffffffffffffffff1684600401838154811061180457fe5b906000526020600020015485600501848154811061181e57fe5b906000526020600020018054600181600116156101000203166002900480601f0160208091040260200160405190810160405280929190818152602001828054600181600116156101000203166002900480156118bc5780601f10611891576101008083540402835291602001916118bc565b820191906000526020600020905b81548152906001019060200180831161189f57829003601f168201915b50505050508660060185815481106118d057fe5b906000526020600020018054600181600116156101000203166002900480601f01602080910402602001604051908101604052809291908181526020018280546001816001161561010002031660029004801561196e5780601f106119435761010080835404028352916020019161196e565b820191906000526020600020905b81548152906001019060200180831161195157829003601f168201915b505050505086612095565b80806001019150506117a9565b508082600201819055507f9a2e42fd6722813d69113e7d0079d3d940171428df7373df9c7f7617cfda289283826040516119c1929190614306565b60405180910390a1505050565b6040516119da90613c55565b604051809103902081565b6119ed612482565b60036000848152602001908152602001600020600c0160008373ffffffffffffffffffffffffffffffffffffffff1673ffffffffffffffffffffffffffffffffffffffff1681526020019081526020016000206040518060600160405290816000820160009054906101000a900460ff161515151581526020016000820160019054906101000a900460ff161515151581526020016000820160029054906101000a90046bffffffffffffffffffffffff166bffffffffffffffffffffffff166bffffffffffffffffffffffff1681525050905092915050565b60056007811115611ad457fe5b611add82610974565b6007811115611ae857fe5b14611b28576040517f08c379a0000000000000000000000000000000000000000000000000000000008152600401611b1f90613f93565b60405180910390fd5b6000600360008381526020019081526020016000209050600181600b0160016101000a81548160ff02191690831515021790555060008090505b8160030180549050811015611cd8576000809054906101000a900473ffffffffffffffffffffffffffffffffffffffff1673ffffffffffffffffffffffffffffffffffffffff16630825f38f836004018381548110611bbd57fe5b9060005260206000200154846003018481548110611bd757fe5b9060005260206000200160009054906101000a900473ffffffffffffffffffffffffffffffffffffffff16856004018581548110611c1157fe5b9060005260206000200154866005018681548110611c2b57fe5b90600052602060002001876006018781548110611c4457fe5b9060005260206000200188600201546040518763ffffffff1660e01b8152600401611c73959493929190613d62565b6000604051808303818588803b158015611c8c57600080fd5b505af1158015611ca0573d6000803e3d6000fd5b50505050506040513d6000823e3d601f19601f82011682018060405250611cca9190810190612c6a565b508080600101915050611b62565b507f712ae1383f79ac853f8d882153778e0260ef8f03b504e2866e0593e04d2b291f82604051611d0891906141ae565b60405180910390a15050565b60016007811115611d2157fe5b611d2a83610974565b6007811115611d3557fe5b14611d75576040517f08c379a0000000000000000000000000000000000000000000000000000000008152600401611d6c90614153565b60405180910390fd5b6000600360008481526020019081526020016000209050600081600c0160008673ffffffffffffffffffffffffffffffffffffffff1673ffffffffffffffffffffffffffffffffffffffff1681526020019081526020016000209050600015158160000160009054906101000a900460ff16151514611e29576040517f08c379a0000000000000000000000000000000000000000000000000000000008152600401611e2090613fd3565b60405180910390fd5b6000600160009054906101000a900473ffffffffffffffffffffffffffffffffffffffff1673ffffffffffffffffffffffffffffffffffffffff1663782d6fe18785600701546040518363ffffffff1660e01b8152600401611e8c929190613c93565b60206040518083038186803b158015611ea457600080fd5b505afa158015611eb8573d6000803e3d6000fd5b505050506040513d601f19601f82011682018060405250611edc9190810190612dec565b90508315611f0d57611f008360090154826bffffffffffffffffffffffff16611fe3565b8360090181905550611f32565b611f2983600a0154826bffffffffffffffffffffffff16611fe3565b83600a01819055505b60018260000160006101000a81548160ff021916908315150217905550838260000160016101000a81548160ff021916908315150217905550808260000160026101000a8154816bffffffffffffffffffffffff02191690836bffffffffffffffffffffffff1602179055507f877856338e13f63d0c36822ff0ef736b80934cd90574a3a5bc9262c39d217c4686868684604051611fd39493929190613cbc565b60405180910390a1505050505050565b60008082840190508381101561202e576040517f08c379a000000000000000000000000000000000000000000000000000000000815260040161202590614033565b60405180910390fd5b8091505092915050565b60008282111561207d576040517f08c379a000000000000000000000000000000000000000000000000000000000815260040161207490614173565b60405180910390fd5b818303905092915050565b6000804690508091505090565b6000809054906101000a900473ffffffffffffffffffffffffffffffffffffffff1673ffffffffffffffffffffffffffffffffffffffff1663f2b0653786868686866040516020016120eb959493929190613d01565b604051602081830303815290604052805190602001206040518263ffffffff1660e01b815260040161211d9190613e24565b60206040518083038186803b15801561213557600080fd5b505afa158015612149573d6000803e3d6000fd5b505050506040513d601f19601f8201168201806040525061216d9190810190612c18565b156121ad576040517f08c379a00000000000000000000000000000000000000000000000000000000081526004016121a490614093565b60405180910390fd5b6000809054906101000a900473ffffffffffffffffffffffffffffffffffffffff1673ffffffffffffffffffffffffffffffffffffffff16633a66f90186868686866040518663ffffffff1660e01b815260040161220f959493929190613d01565b602060405180830381600087803b15801561222957600080fd5b505af115801561223d573d6000803e3d6000fd5b505050506040513d601f19601f820116820180604052506122619190810190612c41565b505050505050565b604051806101a0016040528060008152602001600073ffffffffffffffffffffffffffffffffffffffff1681526020016000815260200160608152602001606081526020016060815260200160608152602001600081526020016000815260200160008152602001600081526020016000151581526020016000151581525090565b828054828255906000526020600020908101928215612364579160200282015b828111156123635782518260006101000a81548173ffffffffffffffffffffffffffffffffffffffff021916908373ffffffffffffffffffffffffffffffffffffffff1602179055509160200191906001019061230b565b5b50905061237191906124b5565b5090565b8280548282559060005260206000209081019282156123b1579160200282015b828111156123b0578251825591602001919060010190612395565b5b5090506123be91906124f8565b5090565b828054828255906000526020600020908101928215612411579160200282015b8281111561241057825182908051906020019061240092919061251d565b50916020019190600101906123e2565b5b50905061241e919061259d565b5090565b828054828255906000526020600020908101928215612471579160200282015b828111156124705782518290805190602001906124609291906125c9565b5091602001919060010190612442565b5b50905061247e9190612649565b5090565b604051806060016040528060001515815260200160001515815260200160006bffffffffffffffffffffffff1681525090565b6124f591905b808211156124f157600081816101000a81549073ffffffffffffffffffffffffffffffffffffffff0219169055506001016124bb565b5090565b90565b61251a91905b808211156125165760008160009055506001016124fe565b5090565b90565b828054600181600116156101000203166002900490600052602060002090601f016020900481019282601f1061255e57805160ff191683800117855561258c565b8280016001018555821561258c579182015b8281111561258b578251825591602001919060010190612570565b5b50905061259991906124f8565b5090565b6125c691905b808211156125c257600081816125b99190612675565b506001016125a3565b5090565b90565b828054600181600116156101000203166002900490600052602060002090601f016020900481019282601f1061260a57805160ff1916838001178555612638565b82800160010185558215612638579182015b8281111561263757825182559160200191906001019061261c565b5b50905061264591906124f8565b5090565b61267291905b8082111561266e576000818161266591906126bd565b5060010161264f565b5090565b90565b50805460018160011615610100020316600290046000825580601f1061269b57506126ba565b601f0160209004906000526020600020908101906126b991906124f8565b5b50565b50805460018160011615610100020316600290046000825580601f106126e35750612702565b601f01602090049060005260206000209081019061270191906124f8565b5b50565b600081359050612714816147cb565b92915050565b600082601f83011261272b57600080fd5b813561273e6127398261435c565b61432f565b9150818183526020840193506020810190508385602084028201111561276357600080fd5b60005b8381101561279357816127798882612705565b845260208401935060208301925050600181019050612766565b5050505092915050565b600082601f8301126127ae57600080fd5b81356127c16127bc82614384565b61432f565b9150818183526020840193506020810190508360005b8381101561280757813586016127ed888261295c565b8452602084019350602083019250506001810190506127d7565b5050505092915050565b600082601f83011261282257600080fd5b8135612835612830826143ac565b61432f565b9150818183526020840193506020810190508360005b8381101561287b57813586016128618882612a04565b84526020840193506020830192505060018101905061284b565b5050505092915050565b600082601f83011261289657600080fd5b81356128a96128a4826143d4565b61432f565b915081818352602084019350602081019050838560208402820111156128ce57600080fd5b60005b838110156128fe57816128e48882612aac565b8452602084019350602083019250506001810190506128d1565b5050505092915050565b600081359050612917816147e2565b92915050565b60008151905061292c816147e2565b92915050565b600081359050612941816147f9565b92915050565b600081519050612956816147f9565b92915050565b600082601f83011261296d57600080fd5b813561298061297b826143fc565b61432f565b9150808252602083016020830185838301111561299c57600080fd5b6129a7838284614761565b50505092915050565b600082601f8301126129c157600080fd5b81516129d46129cf82614428565b61432f565b915080825260208301602083018583830111156129f057600080fd5b6129fb838284614770565b50505092915050565b600082601f830112612a1557600080fd5b8135612a28612a2382614454565b61432f565b91508082526020830160208301858383011115612a4457600080fd5b612a4f838284614761565b50505092915050565b600082601f830112612a6957600080fd5b8135612a7c612a7782614480565b61432f565b91508082526020830160208301858383011115612a9857600080fd5b612aa3838284614761565b50505092915050565b600081359050612abb81614810565b92915050565b600081519050612ad081614810565b92915050565b600081359050612ae581614827565b92915050565b600081519050612afa8161483e565b92915050565b600060208284031215612b1257600080fd5b6000612b2084828501612705565b91505092915050565b600080600080600060a08688031215612b4157600080fd5b600086013567ffffffffffffffff811115612b5b57600080fd5b612b678882890161271a565b955050602086013567ffffffffffffffff811115612b8457600080fd5b612b9088828901612885565b945050604086013567ffffffffffffffff811115612bad57600080fd5b612bb988828901612811565b935050606086013567ffffffffffffffff811115612bd657600080fd5b612be28882890161279d565b925050608086013567ffffffffffffffff811115612bff57600080fd5b612c0b88828901612a58565b9150509295509295909350565b600060208284031215612c2a57600080fd5b6000612c388482850161291d565b91505092915050565b600060208284031215612c5357600080fd5b6000612c6184828501612947565b91505092915050565b600060208284031215612c7c57600080fd5b600082015167ffffffffffffffff811115612c9657600080fd5b612ca2848285016129b0565b91505092915050565b600060208284031215612cbd57600080fd5b6000612ccb84828501612aac565b91505092915050565b600060208284031215612ce657600080fd5b6000612cf484828501612ac1565b91505092915050565b60008060408385031215612d1057600080fd5b6000612d1e85828601612aac565b9250506020612d2f85828601612705565b9150509250929050565b60008060408385031215612d4c57600080fd5b6000612d5a85828601612aac565b9250506020612d6b85828601612908565b9150509250929050565b600080600080600060a08688031215612d8d57600080fd5b6000612d9b88828901612aac565b9550506020612dac88828901612908565b9450506040612dbd88828901612ad6565b9350506060612dce88828901612932565b9250506080612ddf88828901612932565b9150509295509295909350565b600060208284031215612dfe57600080fd5b6000612e0c84828501612aeb565b91505092915050565b6000612e218383612e7c565b60208301905092915050565b6000612e3983836130bd565b905092915050565b6000612e4d83836131eb565b905092915050565b6000612e618383613bbe565b60208301905092915050565b612e76816146bf565b82525050565b612e8581614635565b82525050565b612e9481614635565b82525050565b6000612ea582614516565b612eaf81856145a2565b9350612eba836144ac565b8060005b83811015612eeb578151612ed28882612e15565b9750612edd8361456e565b925050600181019050612ebe565b5085935050505092915050565b6000612f0382614521565b612f0d81856145b3565b935083602082028501612f1f856144bc565b8060005b85811015612f5b5784840389528151612f3c8582612e2d565b9450612f478361457b565b925060208a01995050600181019050612f23565b50829750879550505050505092915050565b6000612f788261452c565b612f8281856145c4565b935083602082028501612f94856144cc565b8060005b85811015612fd05784840389528151612fb18582612e41565b9450612fbc83614588565b925060208a01995050600181019050612f98565b50829750879550505050505092915050565b6000612fed82614537565b612ff781856145d5565b9350613002836144dc565b8060005b8381101561303357815161301a8882612e55565b975061302583614595565b925050600181019050613006565b5085935050505092915050565b61304981614647565b82525050565b61305881614647565b82525050565b61306781614653565b82525050565b61307e61307982614653565b6147a3565b82525050565b600061308f8261454d565b61309981856145f7565b93506130a9818560208601614770565b6130b2816147ad565b840191505092915050565b60006130c882614542565b6130d281856145e6565b93506130e2818560208601614770565b6130eb816147ad565b840191505092915050565b60008154600181166000811461311357600181146131395761317d565b607f600283041661312481876145f7565b955060ff19831686526020860193505061317d565b6002820461314781876145f7565b9550613152856144ec565b60005b8281101561317457815481890152600182019150602081019050613155565b80880195505050505b505092915050565b61318e816146d1565b82525050565b61319d816146f5565b82525050565b6131ac81614719565b82525050565b60006131bd82614563565b6131c78185614619565b93506131d7818560208601614770565b6131e0816147ad565b840191505092915050565b60006131f682614558565b6132008185614608565b9350613210818560208601614770565b613219816147ad565b840191505092915050565b600061322f82614558565b6132398185614619565b9350613249818560208601614770565b613252816147ad565b840191505092915050565b60008154600181166000811461327a57600181146132a0576132e4565b607f600283041661328b8187614619565b955060ff1983168652602086019350506132e4565b600282046132ae8187614619565b95506132b985614501565b60005b828110156132db578154818901526001820191506020810190506132bc565b80880195505050505b505092915050565b60006132f9604483614619565b91507f476f7665726e6f72416c7068613a3a71756575653a2070726f706f73616c206360008301527f616e206f6e6c792062652071756575656420696620697420697320737563636560208301527f65646564000000000000000000000000000000000000000000000000000000006040830152606082019050919050565b6000613385604583614619565b91507f476f7665726e6f72416c7068613a3a657865637574653a2070726f706f73616c60008301527f2063616e206f6e6c79206265206578656375746564206966206974206973207160208301527f75657565640000000000000000000000000000000000000000000000000000006040830152606082019050919050565b600061341160028361462a565b91507f19010000000000000000000000000000000000000000000000000000000000006000830152600282019050919050565b6000613451602983614619565b91507f476f7665726e6f72416c7068613a3a73746174653a20696e76616c696420707260008301527f6f706f73616c20696400000000000000000000000000000000000000000000006020830152604082019050919050565b60006134b7602d83614619565b91507f476f7665726e6f72416c7068613a3a5f63617374566f74653a20766f7465722060008301527f616c726561647920766f746564000000000000000000000000000000000000006020830152604082019050919050565b600061351d605983614619565b91507f476f7665726e6f72416c7068613a3a70726f706f73653a206f6e65206c69766560008301527f2070726f706f73616c207065722070726f706f7365722c20666f756e6420616e60208301527f20616c72656164792070656e64696e672070726f706f73616c000000000000006040830152606082019050919050565b60006135a9602883614619565b91507f476f7665726e6f72416c7068613a3a70726f706f73653a20746f6f206d616e7960008301527f20616374696f6e730000000000000000000000000000000000000000000000006020830152604082019050919050565b600061360f601183614619565b91507f6164646974696f6e206f766572666c6f770000000000000000000000000000006000830152602082019050919050565b600061364f60438361462a565b91507f454950373132446f6d61696e28737472696e67206e616d652c75696e7432353660008301527f20636861696e49642c6164647265737320766572696679696e67436f6e74726160208301527f63742900000000000000000000000000000000000000000000000000000000006040830152604382019050919050565b60006136db60278361462a565b91507f42616c6c6f742875696e743235362070726f706f73616c49642c626f6f6c207360008301527f7570706f727429000000000000000000000000000000000000000000000000006020830152602782019050919050565b6000613741604483614619565b91507f476f7665726e6f72416c7068613a3a70726f706f73653a2070726f706f73616c60008301527f2066756e6374696f6e20696e666f726d6174696f6e206172697479206d69736d60208301527f61746368000000000000000000000000000000000000000000000000000000006040830152606082019050919050565b60006137cd602f83614619565b91507f476f7665726e6f72416c7068613a3a63616e63656c3a2070726f706f7365722060008301527f61626f7665207468726573686f6c6400000000000000000000000000000000006020830152604082019050919050565b6000613833604483614619565b91507f476f7665726e6f72416c7068613a3a5f71756575654f725265766572743a207060008301527f726f706f73616c20616374696f6e20616c72656164792071756575656420617460208301527f20657461000000000000000000000000000000000000000000000000000000006040830152606082019050919050565b60006138bf602c83614619565b91507f476f7665726e6f72416c7068613a3a70726f706f73653a206d7573742070726f60008301527f7669646520616374696f6e7300000000000000000000000000000000000000006020830152604082019050919050565b6000613925603f83614619565b91507f476f7665726e6f72416c7068613a3a70726f706f73653a2070726f706f73657260008301527f20766f7465732062656c6f772070726f706f73616c207468726573686f6c64006020830152604082019050919050565b600061398b602f83614619565b91507f476f7665726e6f72416c7068613a3a63617374566f746542795369673a20696e60008301527f76616c6964207369676e617475726500000000000000000000000000000000006020830152604082019050919050565b60006139f1605883614619565b91507f476f7665726e6f72416c7068613a3a70726f706f73653a206f6e65206c69766560008301527f2070726f706f73616c207065722070726f706f7365722c20666f756e6420616e60208301527f20616c7265616479206163746976652070726f706f73616c00000000000000006040830152606082019050919050565b6000613a7d603683614619565b91507f476f7665726e6f72416c7068613a3a63616e63656c3a2063616e6e6f7420636160008301527f6e63656c2065786563757465642070726f706f73616c000000000000000000006020830152604082019050919050565b6000613ae3602a83614619565b91507f476f7665726e6f72416c7068613a3a5f63617374566f74653a20766f74696e6760008301527f20697320636c6f736564000000000000000000000000000000000000000000006020830152604082019050919050565b6000613b49601583614619565b91507f7375627472616374696f6e20756e646572666c6f7700000000000000000000006000830152602082019050919050565b606082016000820151613b926000850182613040565b506020820151613ba56020850182613040565b506040820151613bb86040850182613bfa565b50505050565b613bc781614690565b82525050565b613bd681614690565b82525050565b613be58161469a565b82525050565b613bf48161474f565b82525050565b613c03816146a7565b82525050565b6000613c1482613404565b9150613c20828561306d565b602082019150613c30828461306d565b6020820191508190509392505050565b6000613c4b82613642565b9150819050919050565b6000613c60826136ce565b9150819050919050565b6000604082019050613c7f6000830185612e6d565b613c8c6020830184613bcd565b9392505050565b6000604082019050613ca86000830185612e8b565b613cb56020830184613bcd565b9392505050565b6000608082019050613cd16000830187612e8b565b613cde6020830186613bcd565b613ceb604083018561304f565b613cf86060830184613beb565b95945050505050565b600060a082019050613d166000830188612e8b565b613d236020830187613bcd565b8181036040830152613d3581866131b2565b90508181036060830152613d498185613084565b9050613d586080830184613bcd565b9695505050505050565b600060a082019050613d776000830188612e8b565b613d846020830187613bcd565b8181036040830152613d96818661325d565b90508181036060830152613daa81856130f6565b9050613db96080830184613bcd565b9695505050505050565b60006080820190508181036000830152613ddd8187612e9a565b90508181036020830152613df18186612fe2565b90508181036040830152613e058185612f6d565b90508181036060830152613e198184612ef8565b905095945050505050565b6000602082019050613e39600083018461305e565b92915050565b6000608082019050613e54600083018761305e565b613e61602083018661305e565b613e6e6040830185613bcd565b613e7b6060830184612e8b565b95945050505050565b6000606082019050613e99600083018661305e565b613ea66020830185613bcd565b613eb3604083018461304f565b949350505050565b6000608082019050613ed0600083018761305e565b613edd6020830186613bdc565b613eea604083018561305e565b613ef7606083018461305e565b95945050505050565b6000602082019050613f156000830184613185565b92915050565b6000602082019050613f306000830184613194565b92915050565b6000602082019050613f4b60008301846131a3565b92915050565b60006020820190508181036000830152613f6b8184613224565b905092915050565b60006020820190508181036000830152613f8c816132ec565b9050919050565b60006020820190508181036000830152613fac81613378565b9050919050565b60006020820190508181036000830152613fcc81613444565b9050919050565b60006020820190508181036000830152613fec816134aa565b9050919050565b6000602082019050818103600083015261400c81613510565b9050919050565b6000602082019050818103600083015261402c8161359c565b9050919050565b6000602082019050818103600083015261404c81613602565b9050919050565b6000602082019050818103600083015261406c81613734565b9050919050565b6000602082019050818103600083015261408c816137c0565b9050919050565b600060208201905081810360008301526140ac81613826565b9050919050565b600060208201905081810360008301526140cc816138b2565b9050919050565b600060208201905081810360008301526140ec81613918565b9050919050565b6000602082019050818103600083015261410c8161397e565b9050919050565b6000602082019050818103600083015261412c816139e4565b9050919050565b6000602082019050818103600083015261414c81613a70565b9050919050565b6000602082019050818103600083015261416c81613ad6565b9050919050565b6000602082019050818103600083015261418c81613b3c565b9050919050565b60006060820190506141a86000830184613b7c565b92915050565b60006020820190506141c36000830184613bcd565b92915050565b6000610120820190506141df600083018c613bcd565b6141ec602083018b612e6d565b81810360408301526141fe818a612e9a565b905081810360608301526142128189612fe2565b905081810360808301526142268188612f6d565b905081810360a083015261423a8187612ef8565b905061424960c0830186613bcd565b61425660e0830185613bcd565b81810361010083015261426981846131b2565b90509a9950505050505050505050565b60006101208201905061428f600083018c613bcd565b61429c602083018b612e8b565b6142a9604083018a613bcd565b6142b66060830189613bcd565b6142c36080830188613bcd565b6142d060a0830187613bcd565b6142dd60c0830186613bcd565b6142ea60e083018561304f565b6142f861010083018461304f565b9a9950505050505050505050565b600060408201905061431b6000830185613bcd565b6143286020830184613bcd565b9392505050565b6000604051905081810181811067ffffffffffffffff8211171561435257600080fd5b8060405250919050565b600067ffffffffffffffff82111561437357600080fd5b602082029050602081019050919050565b600067ffffffffffffffff82111561439b57600080fd5b602082029050602081019050919050565b600067ffffffffffffffff8211156143c357600080fd5b602082029050602081019050919050565b600067ffffffffffffffff8211156143eb57600080fd5b602082029050602081019050919050565b600067ffffffffffffffff82111561441357600080fd5b601f19601f8301169050602081019050919050565b600067ffffffffffffffff82111561443f57600080fd5b601f19601f8301169050602081019050919050565b600067ffffffffffffffff82111561446b57600080fd5b601f19601f8301169050602081019050919050565b600067ffffffffffffffff82111561449757600080fd5b601f19601f8301169050602081019050919050565b6000819050602082019050919050565b6000819050602082019050919050565b6000819050602082019050919050565b6000819050602082019050919050565b60008190508160005260206000209050919050565b60008190508160005260206000209050919050565b600081519050919050565b600081519050919050565b600081519050919050565b600081519050919050565b600081519050919050565b600081519050919050565b600081519050919050565b600081519050919050565b6000602082019050919050565b6000602082019050919050565b6000602082019050919050565b6000602082019050919050565b600082825260208201905092915050565b600082825260208201905092915050565b600082825260208201905092915050565b600082825260208201905092915050565b600082825260208201905092915050565b600082825260208201905092915050565b600082825260208201905092915050565b600082825260208201905092915050565b600081905092915050565b600061464082614670565b9050919050565b60008115159050919050565b6000819050919050565b600081905061466b826147be565b919050565b600073ffffffffffffffffffffffffffffffffffffffff82169050919050565b6000819050919050565b600060ff82169050919050565b60006bffffffffffffffffffffffff82169050919050565b60006146ca8261472b565b9050919050565b60006146dc826146e3565b9050919050565b60006146ee82614670565b9050919050565b600061470082614707565b9050919050565b600061471282614670565b9050919050565b60006147248261465d565b9050919050565b60006147368261473d565b9050919050565b600061474882614670565b9050919050565b600061475a826146a7565b9050919050565b82818337600083830152505050565b60005b8381101561478e578082015181840152602081019050614773565b8381111561479d576000848401525b50505050565b6000819050919050565b6000601f19601f8301169050919050565b600881106147c857fe5b50565b6147d481614635565b81146147df57600080fd5b50565b6147eb81614647565b81146147f657600080fd5b50565b61480281614653565b811461480d57600080fd5b50565b61481981614690565b811461482457600080fd5b50565b6148308161469a565b811461483b57600080fd5b50565b614847816146a7565b811461485257600080fd5b5056fea26469706673582212201c9b52e66ed41dfcad6378f279f934fb2bbe0eba2bf9f9ab87b1814ab45b0cca64736f6c63430006000033",
  "source": "pragma solidity ^0.6.0;\r\npragma experimental ABIEncoderV2;\r\n\r\ncontract GovernorAlpha {\r\n    /// @notice The name of this contract\r\n    string public constant name = \"<Token> Governor Alpha\";\r\n\r\n    /// @notice The number of votes in support of a proposal required in order for a quorum to be reached and for a vote to succeed\r\n    function quorumVotes() public pure returns (uint) { return 40000000 * (10 ** 18); } // Change this\r\n\r\n    /// @notice The number of votes required in order for a voter to become a proposer\r\n    function proposalThreshold() public pure returns (uint) { return 10000000 * (10 ** 18); } // Change this\r\n\r\n    /// @notice The maximum number of actions that can be included in a proposal\r\n    function proposalMaxOperations() public pure returns (uint) { return 10; } // 10 actions\r\n\r\n    /// @notice The delay before voting on a proposal may take place, once proposed\r\n    function votingDelay() public pure returns (uint) { return 1; } // 1 block\r\n\r\n    /// @notice The duration of voting on a proposal, in blocks\r\n    function votingPeriod() public pure returns (uint) { return 40320; } // ~7 days in blocks (assuming 15s blocks)\r\n\r\n    /// @notice The address of the DAO Timelock\r\n    TimelockInterface public timelock;\r\n\r\n    /// @notice The address of the Protocol governance token\r\n    TokenInterface public tkn;\r\n\r\n    /// @notice The total number of proposals\r\n    uint public proposalCount;\r\n\r\n    struct Proposal {\r\n        /// @notice Unique id for looking up a proposal\r\n        uint id;\r\n\r\n        /// @notice Creator of the proposal\r\n        address proposer;\r\n\r\n        /// @notice The timestamp that the proposal will be available for execution, set once the vote succeeds\r\n        uint eta;\r\n\r\n        /// @notice the ordered list of target addresses for calls to be made\r\n        address[] targets;\r\n\r\n        /// @notice The ordered list of values (i.e. msg.value) to be passed to the calls to be made\r\n        uint[] values;\r\n\r\n        /// @notice The ordered list of function signatures to be called\r\n        string[] signatures;\r\n\r\n        /// @notice The ordered list of calldata to be passed to each call\r\n        bytes[] calldatas;\r\n\r\n        /// @notice The block at which voting begins: holders must delegate their votes prior to this block\r\n        uint startBlock;\r\n\r\n        /// @notice The block at which voting ends: votes must be cast prior to this block\r\n        uint endBlock;\r\n\r\n        /// @notice Current number of votes in favor of this proposal\r\n        uint forVotes;\r\n\r\n        /// @notice Current number of votes in opposition to this proposal\r\n        uint againstVotes;\r\n\r\n        /// @notice Flag marking whether the proposal has been canceled\r\n        bool canceled;\r\n\r\n        /// @notice Flag marking whether the proposal has been executed\r\n        bool executed;\r\n\r\n        /// @notice Receipts of ballots for the entire set of voters\r\n        mapping (address => Receipt) receipts;\r\n    }\r\n\r\n    /// @notice Ballot receipt record for a voter\r\n    struct Receipt {\r\n        /// @notice Whether or not a vote has been cast\r\n        bool hasVoted;\r\n\r\n        /// @notice Whether or not the voter supports the proposal\r\n        bool support;\r\n\r\n        /// @notice The number of votes the voter had, which were cast\r\n        uint96 votes;\r\n    }\r\n\r\n    /// @notice Possible states that a proposal may be in\r\n    enum ProposalState {\r\n        Pending,\r\n        Active,\r\n        Canceled,\r\n        Defeated,\r\n        Succeeded,\r\n        Queued,\r\n        Expired,\r\n        Executed\r\n    }\r\n\r\n    /// @notice The official record of all proposals ever proposed\r\n    mapping (uint => Proposal) public proposals;\r\n\r\n    /// @notice The latest proposal for each proposer\r\n    mapping (address => uint) public latestProposalIds;\r\n\r\n    /// @notice The EIP-712 typehash for the contract's domain\r\n    bytes32 public constant DOMAIN_TYPEHASH = keccak256(\"EIP712Domain(string name,uint256 chainId,address verifyingContract)\");\r\n\r\n    /// @notice The EIP-712 typehash for the ballot struct used by the contract\r\n    bytes32 public constant BALLOT_TYPEHASH = keccak256(\"Ballot(uint256 proposalId,bool support)\");\r\n\r\n    /// @notice An event emitted when a new proposal is created\r\n    event ProposalCreated(uint id, address proposer, address[] targets, uint[] values, string[] signatures, bytes[] calldatas, uint startBlock, uint endBlock, string description);\r\n\r\n    /// @notice An event emitted when a vote has been cast on a proposal\r\n    event VoteCast(address voter, uint proposalId, bool support, uint votes);\r\n\r\n    /// @notice An event emitted when a proposal has been canceled\r\n    event ProposalCanceled(uint id);\r\n\r\n    /// @notice An event emitted when a proposal has been queued in the Timelock\r\n    event ProposalQueued(uint id, uint eta);\r\n\r\n    /// @notice An event emitted when a proposal has been executed in the Timelock\r\n    event ProposalExecuted(uint id);\r\n\r\n    constructor(address timelock_, address tkn_) public {\r\n        timelock = TimelockInterface(timelock_);\r\n        tkn = TokenInterface(tkn_);\r\n    }\r\n\r\n    function propose(address[] memory targets, uint[] memory values, string[] memory signatures, bytes[] memory calldatas, string memory description) public returns (uint) {\r\n        require(tkn.getPriorVotes(msg.sender, sub256(block.number, 1)) > proposalThreshold(), \"GovernorAlpha::propose: proposer votes below proposal threshold\");\r\n        require(targets.length == values.length && targets.length == signatures.length && targets.length == calldatas.length, \"GovernorAlpha::propose: proposal function information arity mismatch\");\r\n        require(targets.length != 0, \"GovernorAlpha::propose: must provide actions\");\r\n        require(targets.length <= proposalMaxOperations(), \"GovernorAlpha::propose: too many actions\");\r\n\r\n        uint latestProposalId = latestProposalIds[msg.sender];\r\n        if (latestProposalId != 0) {\r\n          ProposalState proposersLatestProposalState = state(latestProposalId);\r\n          require(proposersLatestProposalState != ProposalState.Active, \"GovernorAlpha::propose: one live proposal per proposer, found an already active proposal\");\r\n          require(proposersLatestProposalState != ProposalState.Pending, \"GovernorAlpha::propose: one live proposal per proposer, found an already pending proposal\");\r\n        }\r\n\r\n        uint startBlock = add256(block.number, votingDelay());\r\n        uint endBlock = add256(startBlock, votingPeriod());\r\n\r\n        proposalCount++;\r\n        Proposal memory newProposal = Proposal({\r\n            id: proposalCount,\r\n            proposer: msg.sender,\r\n            eta: 0,\r\n            targets: targets,\r\n            values: values,\r\n            signatures: signatures,\r\n            calldatas: calldatas,\r\n            startBlock: startBlock,\r\n            endBlock: endBlock,\r\n            forVotes: 0,\r\n            againstVotes: 0,\r\n            canceled: false,\r\n            executed: false\r\n        });\r\n\r\n        proposals[newProposal.id] = newProposal;\r\n        latestProposalIds[newProposal.proposer] = newProposal.id;\r\n\r\n        emit ProposalCreated(newProposal.id, msg.sender, targets, values, signatures, calldatas, startBlock, endBlock, description);\r\n        return newProposal.id;\r\n    }\r\n\r\n    function queue(uint proposalId) public {\r\n        require(state(proposalId) == ProposalState.Succeeded, \"GovernorAlpha::queue: proposal can only be queued if it is succeeded\");\r\n        Proposal storage proposal = proposals[proposalId];\r\n        uint eta = add256(block.timestamp, timelock.delay());\r\n        for (uint i = 0; i < proposal.targets.length; i++) {\r\n            _queueOrRevert(proposal.targets[i], proposal.values[i], proposal.signatures[i], proposal.calldatas[i], eta);\r\n        }\r\n        proposal.eta = eta;\r\n        emit ProposalQueued(proposalId, eta);\r\n    }\r\n\r\n    function _queueOrRevert(address target, uint value, string memory signature, bytes memory data, uint eta) internal {\r\n        require(!timelock.queuedTransactions(keccak256(abi.encode(target, value, signature, data, eta))), \"GovernorAlpha::_queueOrRevert: proposal action already queued at eta\");\r\n        timelock.queueTransaction(target, value, signature, data, eta);\r\n    }\r\n\r\n    function execute(uint proposalId) public payable {\r\n        require(state(proposalId) == ProposalState.Queued, \"GovernorAlpha::execute: proposal can only be executed if it is queued\");\r\n        Proposal storage proposal = proposals[proposalId];\r\n        proposal.executed = true;\r\n        for (uint i = 0; i < proposal.targets.length; i++) {\r\n            timelock.executeTransaction.value(proposal.values[i])(proposal.targets[i], proposal.values[i], proposal.signatures[i], proposal.calldatas[i], proposal.eta);\r\n        }\r\n        emit ProposalExecuted(proposalId);\r\n    }\r\n\r\n    function cancel(uint proposalId) public {\r\n        ProposalState state = state(proposalId);\r\n        require(state != ProposalState.Executed, \"GovernorAlpha::cancel: cannot cancel executed proposal\");\r\n\r\n        Proposal storage proposal = proposals[proposalId];\r\n        require(tkn.getPriorVotes(proposal.proposer, sub256(block.number, 1)) < proposalThreshold(), \"GovernorAlpha::cancel: proposer above threshold\");\r\n\r\n        proposal.canceled = true;\r\n        for (uint i = 0; i < proposal.targets.length; i++) {\r\n            timelock.cancelTransaction(proposal.targets[i], proposal.values[i], proposal.signatures[i], proposal.calldatas[i], proposal.eta);\r\n        }\r\n\r\n        emit ProposalCanceled(proposalId);\r\n    }\r\n\r\n    function getActions(uint proposalId) public view returns (address[] memory targets, uint[] memory values, string[] memory signatures, bytes[] memory calldatas) {\r\n        Proposal storage p = proposals[proposalId];\r\n        return (p.targets, p.values, p.signatures, p.calldatas);\r\n    }\r\n\r\n    function getReceipt(uint proposalId, address voter) public view returns (Receipt memory) {\r\n        return proposals[proposalId].receipts[voter];\r\n    }\r\n\r\n    function state(uint proposalId) public view returns (ProposalState) {\r\n        require(proposalCount >= proposalId && proposalId > 0, \"GovernorAlpha::state: invalid proposal id\");\r\n        Proposal storage proposal = proposals[proposalId];\r\n        if (proposal.canceled) {\r\n            return ProposalState.Canceled;\r\n        } else if (block.number <= proposal.startBlock) {\r\n            return ProposalState.Pending;\r\n        } else if (block.number <= proposal.endBlock) {\r\n            return ProposalState.Active;\r\n        } else if (proposal.forVotes <= proposal.againstVotes || proposal.forVotes < quorumVotes()) {\r\n            return ProposalState.Defeated;\r\n        } else if (proposal.eta == 0) {\r\n            return ProposalState.Succeeded;\r\n        } else if (proposal.executed) {\r\n            return ProposalState.Executed;\r\n        } else if (block.timestamp >= add256(proposal.eta, timelock.GRACE_PERIOD())) {\r\n            return ProposalState.Expired;\r\n        } else {\r\n            return ProposalState.Queued;\r\n        }\r\n    }\r\n\r\n    function castVote(uint proposalId, bool support) public {\r\n        return _castVote(msg.sender, proposalId, support);\r\n    }\r\n\r\n    function castVoteBySig(uint proposalId, bool support, uint8 v, bytes32 r, bytes32 s) public {\r\n        bytes32 domainSeparator = keccak256(abi.encode(DOMAIN_TYPEHASH, keccak256(bytes(name)), getChainId(), address(this)));\r\n        bytes32 structHash = keccak256(abi.encode(BALLOT_TYPEHASH, proposalId, support));\r\n        bytes32 digest = keccak256(abi.encodePacked(\"\\x19\\x01\", domainSeparator, structHash));\r\n        address signatory = ecrecover(digest, v, r, s);\r\n        require(signatory != address(0), \"GovernorAlpha::castVoteBySig: invalid signature\");\r\n        return _castVote(signatory, proposalId, support);\r\n    }\r\n\r\n    function _castVote(address voter, uint proposalId, bool support) internal {\r\n        require(state(proposalId) == ProposalState.Active, \"GovernorAlpha::_castVote: voting is closed\");\r\n        Proposal storage proposal = proposals[proposalId];\r\n        Receipt storage receipt = proposal.receipts[voter];\r\n        require(receipt.hasVoted == false, \"GovernorAlpha::_castVote: voter already voted\");\r\n        uint96 votes = tkn.getPriorVotes(voter, proposal.startBlock);\r\n\r\n        if (support) {\r\n            proposal.forVotes = add256(proposal.forVotes, votes);\r\n        } else {\r\n            proposal.againstVotes = add256(proposal.againstVotes, votes);\r\n        }\r\n\r\n        receipt.hasVoted = true;\r\n        receipt.support = support;\r\n        receipt.votes = votes;\r\n\r\n        emit VoteCast(voter, proposalId, support, votes);\r\n    }\r\n\r\n    function add256(uint256 a, uint256 b) internal pure returns (uint) {\r\n        uint c = a + b;\r\n        require(c >= a, \"addition overflow\");\r\n        return c;\r\n    }\r\n\r\n    function sub256(uint256 a, uint256 b) internal pure returns (uint) {\r\n        require(b <= a, \"subtraction underflow\");\r\n        return a - b;\r\n    }\r\n\r\n    function getChainId() internal pure returns (uint) {\r\n        uint chainId;\r\n        assembly { chainId := chainid() }\r\n        return chainId;\r\n    }\r\n}\r\n\r\ninterface TimelockInterface {\r\n    function delay() external view returns (uint);\r\n    function GRACE_PERIOD() external view returns (uint);\r\n    function acceptAdmin() external;\r\n    function queuedTransactions(bytes32 hash) external view returns (bool);\r\n    function queueTransaction(address target, uint value, string calldata signature, bytes calldata data, uint eta) external returns (bytes32);\r\n    function cancelTransaction(address target, uint value, string calldata signature, bytes calldata data, uint eta) external;\r\n    function executeTransaction(address target, uint value, string calldata signature, bytes calldata data, uint eta) external payable returns (bytes memory);\r\n}\r\n\r\ninterface TokenInterface {\r\n    function getPriorVotes(address account, uint blockNumber) external view returns (uint96);\r\n}",
  "sourcePath": "/mnt/e/Projects/tests/comp-fork/contracts/GovernorAlpha.sol",
  "compiler": {
    "name": "solc",
    "version": "0.6.0+commit.26b70077.Emscripten.clang"
  },
  "schemaVersion": "3.2.4",
  "updatedAt": "2020-10-20T03:07:36.863Z",
  "devdoc": {
    "methods": {}
  },
  "userdoc": {
    "methods": {
      "proposalMaxOperations()": {
        "notice": "The maximum number of actions that can be included in a proposal"
      },
      "proposalThreshold()": {
        "notice": "The number of votes required in order for a voter to become a proposer"
      },
      "quorumVotes()": {
        "notice": "The number of votes in support of a proposal required in order for a quorum to be reached and for a vote to succeed"
      },
      "votingDelay()": {
        "notice": "The delay before voting on a proposal may take place, once proposed"
      },
      "votingPeriod()": {
        "notice": "The duration of voting on a proposal, in blocks"
      }
    }
  }
}